{
  "_format": "hh-sol-artifact-1",
  "contractName": "EscrowContract",
  "sourceName": "contracts/EscrowContract.sol",
  "abi": [
    {
      "inputs": [
        {
          "internalType": "address",
          "name": "productListingAddress",
          "type": "address"
        }
      ],
      "stateMutability": "nonpayable",
      "type": "constructor"
    },
    {
      "inputs": [
        {
          "internalType": "address",
          "name": "owner",
          "type": "address"
        }
      ],
      "name": "OwnableInvalidOwner",
      "type": "error"
    },
    {
      "inputs": [
        {
          "internalType": "address",
          "name": "account",
          "type": "address"
        }
      ],
      "name": "OwnableUnauthorizedAccount",
      "type": "error"
    },
    {
      "inputs": [],
      "name": "ReentrancyGuardReentrantCall",
      "type": "error"
    },
    {
      "inputs": [
        {
          "internalType": "address",
          "name": "token",
          "type": "address"
        }
      ],
      "name": "SafeERC20FailedOperation",
      "type": "error"
    },
    {
      "anonymous": false,
      "inputs": [
        {
          "indexed": true,
          "internalType": "uint256",
          "name": "disputeId",
          "type": "uint256"
        },
        {
          "indexed": true,
          "internalType": "uint256",
          "name": "orderId",
          "type": "uint256"
        },
        {
          "indexed": true,
          "internalType": "address",
          "name": "initiator",
          "type": "address"
        },
        {
          "indexed": false,
          "internalType": "enum EscrowContract.DisputeReason",
          "name": "reason",
          "type": "uint8"
        },
        {
          "indexed": false,
          "internalType": "uint256",
          "name": "timestamp",
          "type": "uint256"
        }
      ],
      "name": "DisputeOpened",
      "type": "event"
    },
    {
      "anonymous": false,
      "inputs": [
        {
          "indexed": true,
          "internalType": "uint256",
          "name": "disputeId",
          "type": "uint256"
        },
        {
          "indexed": true,
          "internalType": "address",
          "name": "arbitratorAddress",
          "type": "address"
        },
        {
          "indexed": false,
          "internalType": "uint256",
          "name": "buyerRelease",
          "type": "uint256"
        },
        {
          "indexed": false,
          "internalType": "uint256",
          "name": "sellerRelease",
          "type": "uint256"
        },
        {
          "indexed": false,
          "internalType": "uint256",
          "name": "timestamp",
          "type": "uint256"
        }
      ],
      "name": "DisputeResolved",
      "type": "event"
    },
    {
      "anonymous": false,
      "inputs": [
        {
          "indexed": true,
          "internalType": "uint256",
          "name": "orderId",
          "type": "uint256"
        },
        {
          "indexed": true,
          "internalType": "address",
          "name": "seller",
          "type": "address"
        },
        {
          "indexed": false,
          "internalType": "uint256",
          "name": "amount",
          "type": "uint256"
        },
        {
          "indexed": false,
          "internalType": "uint256",
          "name": "timestamp",
          "type": "uint256"
        }
      ],
      "name": "FundsReleasedToSeller",
      "type": "event"
    },
    {
      "anonymous": false,
      "inputs": [
        {
          "indexed": true,
          "internalType": "uint256",
          "name": "orderId",
          "type": "uint256"
        },
        {
          "indexed": false,
          "internalType": "uint256",
          "name": "amount",
          "type": "uint256"
        },
        {
          "indexed": false,
          "internalType": "uint256",
          "name": "timestamp",
          "type": "uint256"
        }
      ],
      "name": "OrderAutoReleased",
      "type": "event"
    },
    {
      "anonymous": false,
      "inputs": [
        {
          "indexed": true,
          "internalType": "uint256",
          "name": "orderId",
          "type": "uint256"
        },
        {
          "indexed": true,
          "internalType": "address",
          "name": "buyer",
          "type": "address"
        },
        {
          "indexed": true,
          "internalType": "address",
          "name": "seller",
          "type": "address"
        },
        {
          "indexed": false,
          "internalType": "uint256",
          "name": "productId",
          "type": "uint256"
        },
        {
          "indexed": false,
          "internalType": "uint256",
          "name": "amount",
          "type": "uint256"
        },
        {
          "indexed": false,
          "internalType": "enum EscrowContract.PaymentMethod",
          "name": "paymentMethod",
          "type": "uint8"
        },
        {
          "indexed": false,
          "internalType": "uint256",
          "name": "timestamp",
          "type": "uint256"
        }
      ],
      "name": "OrderCreated",
      "type": "event"
    },
    {
      "anonymous": false,
      "inputs": [
        {
          "indexed": true,
          "internalType": "uint256",
          "name": "orderId",
          "type": "uint256"
        },
        {
          "indexed": true,
          "internalType": "address",
          "name": "buyer",
          "type": "address"
        },
        {
          "indexed": false,
          "internalType": "uint256",
          "name": "timestamp",
          "type": "uint256"
        }
      ],
      "name": "OrderDeliveryConfirmed",
      "type": "event"
    },
    {
      "anonymous": false,
      "inputs": [
        {
          "indexed": true,
          "internalType": "uint256",
          "name": "orderId",
          "type": "uint256"
        },
        {
          "indexed": false,
          "internalType": "uint256",
          "name": "amount",
          "type": "uint256"
        },
        {
          "indexed": true,
          "internalType": "address",
          "name": "paymentToken",
          "type": "address"
        },
        {
          "indexed": false,
          "internalType": "uint256",
          "name": "timestamp",
          "type": "uint256"
        }
      ],
      "name": "OrderFunded",
      "type": "event"
    },
    {
      "anonymous": false,
      "inputs": [
        {
          "indexed": true,
          "internalType": "uint256",
          "name": "orderId",
          "type": "uint256"
        },
        {
          "indexed": true,
          "internalType": "address",
          "name": "seller",
          "type": "address"
        },
        {
          "indexed": false,
          "internalType": "string",
          "name": "trackingNumber",
          "type": "string"
        },
        {
          "indexed": false,
          "internalType": "uint256",
          "name": "timestamp",
          "type": "uint256"
        }
      ],
      "name": "OrderShipped",
      "type": "event"
    },
    {
      "anonymous": false,
      "inputs": [
        {
          "indexed": true,
          "internalType": "address",
          "name": "previousOwner",
          "type": "address"
        },
        {
          "indexed": true,
          "internalType": "address",
          "name": "newOwner",
          "type": "address"
        }
      ],
      "name": "OwnershipTransferred",
      "type": "event"
    },
    {
      "anonymous": false,
      "inputs": [
        {
          "indexed": true,
          "internalType": "uint256",
          "name": "orderId",
          "type": "uint256"
        },
        {
          "indexed": true,
          "internalType": "address",
          "name": "buyer",
          "type": "address"
        },
        {
          "indexed": false,
          "internalType": "uint256",
          "name": "amount",
          "type": "uint256"
        },
        {
          "indexed": false,
          "internalType": "uint256",
          "name": "timestamp",
          "type": "uint256"
        }
      ],
      "name": "RefundIssuedToBuyer",
      "type": "event"
    },
    {
      "inputs": [],
      "name": "arbitrator",
      "outputs": [
        {
          "internalType": "address",
          "name": "",
          "type": "address"
        }
      ],
      "stateMutability": "view",
      "type": "function"
    },
    {
      "inputs": [],
      "name": "autoReleaseDeadline",
      "outputs": [
        {
          "internalType": "uint256",
          "name": "",
          "type": "uint256"
        }
      ],
      "stateMutability": "view",
      "type": "function"
    },
    {
      "inputs": [
        {
          "internalType": "uint256",
          "name": "orderId",
          "type": "uint256"
        }
      ],
      "name": "autoReleaseIfEligible",
      "outputs": [],
      "stateMutability": "nonpayable",
      "type": "function"
    },
    {
      "inputs": [
        {
          "internalType": "address",
          "name": "",
          "type": "address"
        },
        {
          "internalType": "uint256",
          "name": "",
          "type": "uint256"
        }
      ],
      "name": "buyerOrders",
      "outputs": [
        {
          "internalType": "uint256",
          "name": "",
          "type": "uint256"
        }
      ],
      "stateMutability": "view",
      "type": "function"
    },
    {
      "inputs": [
        {
          "internalType": "uint256",
          "name": "orderId",
          "type": "uint256"
        }
      ],
      "name": "canBuyerConfirmDelivery",
      "outputs": [
        {
          "internalType": "bool",
          "name": "",
          "type": "bool"
        }
      ],
      "stateMutability": "view",
      "type": "function"
    },
    {
      "inputs": [
        {
          "internalType": "uint256",
          "name": "orderId",
          "type": "uint256"
        }
      ],
      "name": "confirmDelivery",
      "outputs": [],
      "stateMutability": "nonpayable",
      "type": "function"
    },
    {
      "inputs": [
        {
          "internalType": "uint256",
          "name": "productId",
          "type": "uint256"
        },
        {
          "internalType": "address",
          "name": "seller",
          "type": "address"
        },
        {
          "internalType": "uint256",
          "name": "amount",
          "type": "uint256"
        },
        {
          "internalType": "address",
          "name": "paymentToken",
          "type": "address"
        },
        {
          "internalType": "enum EscrowContract.PaymentMethod",
          "name": "paymentMethod",
          "type": "uint8"
        },
        {
          "internalType": "string",
          "name": "externalPaymentId",
          "type": "string"
        }
      ],
      "name": "createOrder",
      "outputs": [
        {
          "internalType": "uint256",
          "name": "",
          "type": "uint256"
        }
      ],
      "stateMutability": "nonpayable",
      "type": "function"
    },
    {
      "inputs": [
        {
          "internalType": "uint256",
          "name": "",
          "type": "uint256"
        }
      ],
      "name": "disputes",
      "outputs": [
        {
          "internalType": "uint256",
          "name": "disputeId",
          "type": "uint256"
        },
        {
          "internalType": "uint256",
          "name": "orderId",
          "type": "uint256"
        },
        {
          "internalType": "address",
          "name": "initiator",
          "type": "address"
        },
        {
          "internalType": "enum EscrowContract.DisputeReason",
          "name": "reason",
          "type": "uint8"
        },
        {
          "internalType": "string",
          "name": "description",
          "type": "string"
        },
        {
          "internalType": "uint256",
          "name": "createdAt",
          "type": "uint256"
        },
        {
          "internalType": "uint256",
          "name": "resolvedAt",
          "type": "uint256"
        },
        {
          "internalType": "address",
          "name": "arbitratorAddress",
          "type": "address"
        },
        {
          "internalType": "uint256",
          "name": "buyerRelease",
          "type": "uint256"
        },
        {
          "internalType": "uint256",
          "name": "sellerRelease",
          "type": "uint256"
        }
      ],
      "stateMutability": "view",
      "type": "function"
    },
    {
      "inputs": [
        {
          "internalType": "uint256",
          "name": "orderId",
          "type": "uint256"
        },
        {
          "internalType": "uint256",
          "name": "amount",
          "type": "uint256"
        }
      ],
      "name": "fundEscrow",
      "outputs": [],
      "stateMutability": "nonpayable",
      "type": "function"
    },
    {
      "inputs": [
        {
          "internalType": "address",
          "name": "buyer",
          "type": "address"
        }
      ],
      "name": "getBuyerOrders",
      "outputs": [
        {
          "internalType": "uint256[]",
          "name": "",
          "type": "uint256[]"
        }
      ],
      "stateMutability": "view",
      "type": "function"
    },
    {
      "inputs": [
        {
          "internalType": "uint256",
          "name": "disputeId",
          "type": "uint256"
        }
      ],
      "name": "getDispute",
      "outputs": [
        {
          "components": [
            {
              "internalType": "uint256",
              "name": "disputeId",
              "type": "uint256"
            },
            {
              "internalType": "uint256",
              "name": "orderId",
              "type": "uint256"
            },
            {
              "internalType": "address",
              "name": "initiator",
              "type": "address"
            },
            {
              "internalType": "enum EscrowContract.DisputeReason",
              "name": "reason",
              "type": "uint8"
            },
            {
              "internalType": "string",
              "name": "description",
              "type": "string"
            },
            {
              "internalType": "uint256",
              "name": "createdAt",
              "type": "uint256"
            },
            {
              "internalType": "uint256",
              "name": "resolvedAt",
              "type": "uint256"
            },
            {
              "internalType": "address",
              "name": "arbitratorAddress",
              "type": "address"
            },
            {
              "internalType": "uint256",
              "name": "buyerRelease",
              "type": "uint256"
            },
            {
              "internalType": "uint256",
              "name": "sellerRelease",
              "type": "uint256"
            }
          ],
          "internalType": "struct EscrowContract.Dispute",
          "name": "",
          "type": "tuple"
        }
      ],
      "stateMutability": "view",
      "type": "function"
    },
    {
      "inputs": [
        {
          "internalType": "uint256",
          "name": "orderId",
          "type": "uint256"
        }
      ],
      "name": "getOrder",
      "outputs": [
        {
          "components": [
            {
              "internalType": "uint256",
              "name": "orderId",
              "type": "uint256"
            },
            {
              "internalType": "address",
              "name": "buyer",
              "type": "address"
            },
            {
              "internalType": "address",
              "name": "seller",
              "type": "address"
            },
            {
              "internalType": "uint256",
              "name": "productId",
              "type": "uint256"
            },
            {
              "internalType": "uint256",
              "name": "amount",
              "type": "uint256"
            },
            {
              "internalType": "address",
              "name": "paymentToken",
              "type": "address"
            },
            {
              "internalType": "enum EscrowContract.PaymentMethod",
              "name": "paymentMethod",
              "type": "uint8"
            },
            {
              "internalType": "string",
              "name": "externalPaymentId",
              "type": "string"
            },
            {
              "internalType": "enum EscrowContract.OrderStatus",
              "name": "status",
              "type": "uint8"
            },
            {
              "internalType": "uint256",
              "name": "createdAt",
              "type": "uint256"
            },
            {
              "internalType": "uint256",
              "name": "fundedAt",
              "type": "uint256"
            },
            {
              "internalType": "uint256",
              "name": "shippedAt",
              "type": "uint256"
            },
            {
              "internalType": "uint256",
              "name": "deliveredAt",
              "type": "uint256"
            },
            {
              "internalType": "string",
              "name": "trackingNumber",
              "type": "string"
            },
            {
              "internalType": "uint256",
              "name": "autoReleaseDeadline",
              "type": "uint256"
            }
          ],
          "internalType": "struct EscrowContract.Order",
          "name": "",
          "type": "tuple"
        }
      ],
      "stateMutability": "view",
      "type": "function"
    },
    {
      "inputs": [
        {
          "internalType": "address",
          "name": "seller",
          "type": "address"
        }
      ],
      "name": "getSellerOrders",
      "outputs": [
        {
          "internalType": "uint256[]",
          "name": "",
          "type": "uint256[]"
        }
      ],
      "stateMutability": "view",
      "type": "function"
    },
    {
      "inputs": [],
      "name": "getTotalDisputes",
      "outputs": [
        {
          "internalType": "uint256",
          "name": "",
          "type": "uint256"
        }
      ],
      "stateMutability": "view",
      "type": "function"
    },
    {
      "inputs": [],
      "name": "getTotalOrders",
      "outputs": [
        {
          "internalType": "uint256",
          "name": "",
          "type": "uint256"
        }
      ],
      "stateMutability": "view",
      "type": "function"
    },
    {
      "inputs": [
        {
          "internalType": "uint256",
          "name": "orderId",
          "type": "uint256"
        }
      ],
      "name": "isEligibleForAutoRelease",
      "outputs": [
        {
          "internalType": "bool",
          "name": "",
          "type": "bool"
        }
      ],
      "stateMutability": "view",
      "type": "function"
    },
    {
      "inputs": [
        {
          "internalType": "uint256",
          "name": "orderId",
          "type": "uint256"
        },
        {
          "internalType": "string",
          "name": "trackingNumber",
          "type": "string"
        }
      ],
      "name": "markShipped",
      "outputs": [],
      "stateMutability": "nonpayable",
      "type": "function"
    },
    {
      "inputs": [
        {
          "internalType": "uint256",
          "name": "orderId",
          "type": "uint256"
        },
        {
          "internalType": "enum EscrowContract.DisputeReason",
          "name": "reason",
          "type": "uint8"
        },
        {
          "internalType": "string",
          "name": "description",
          "type": "string"
        }
      ],
      "name": "openDispute",
      "outputs": [
        {
          "internalType": "uint256",
          "name": "",
          "type": "uint256"
        }
      ],
      "stateMutability": "nonpayable",
      "type": "function"
    },
    {
      "inputs": [
        {
          "internalType": "uint256",
          "name": "",
          "type": "uint256"
        }
      ],
      "name": "orders",
      "outputs": [
        {
          "internalType": "uint256",
          "name": "orderId",
          "type": "uint256"
        },
        {
          "internalType": "address",
          "name": "buyer",
          "type": "address"
        },
        {
          "internalType": "address",
          "name": "seller",
          "type": "address"
        },
        {
          "internalType": "uint256",
          "name": "productId",
          "type": "uint256"
        },
        {
          "internalType": "uint256",
          "name": "amount",
          "type": "uint256"
        },
        {
          "internalType": "address",
          "name": "paymentToken",
          "type": "address"
        },
        {
          "internalType": "enum EscrowContract.PaymentMethod",
          "name": "paymentMethod",
          "type": "uint8"
        },
        {
          "internalType": "string",
          "name": "externalPaymentId",
          "type": "string"
        },
        {
          "internalType": "enum EscrowContract.OrderStatus",
          "name": "status",
          "type": "uint8"
        },
        {
          "internalType": "uint256",
          "name": "createdAt",
          "type": "uint256"
        },
        {
          "internalType": "uint256",
          "name": "fundedAt",
          "type": "uint256"
        },
        {
          "internalType": "uint256",
          "name": "shippedAt",
          "type": "uint256"
        },
        {
          "internalType": "uint256",
          "name": "deliveredAt",
          "type": "uint256"
        },
        {
          "internalType": "string",
          "name": "trackingNumber",
          "type": "string"
        },
        {
          "internalType": "uint256",
          "name": "autoReleaseDeadline",
          "type": "uint256"
        }
      ],
      "stateMutability": "view",
      "type": "function"
    },
    {
      "inputs": [],
      "name": "owner",
      "outputs": [
        {
          "internalType": "address",
          "name": "",
          "type": "address"
        }
      ],
      "stateMutability": "view",
      "type": "function"
    },
    {
      "inputs": [
        {
          "internalType": "string",
          "name": "",
          "type": "string"
        }
      ],
      "name": "processedPaymentIds",
      "outputs": [
        {
          "internalType": "bool",
          "name": "",
          "type": "bool"
        }
      ],
      "stateMutability": "view",
      "type": "function"
    },
    {
      "inputs": [],
      "name": "productListingContract",
      "outputs": [
        {
          "internalType": "contract ProductListingContract",
          "name": "",
          "type": "address"
        }
      ],
      "stateMutability": "view",
      "type": "function"
    },
    {
      "inputs": [
        {
          "internalType": "uint256",
          "name": "orderId",
          "type": "uint256"
        },
        {
          "internalType": "uint256",
          "name": "amount",
          "type": "uint256"
        }
      ],
      "name": "refundBuyer",
      "outputs": [],
      "stateMutability": "nonpayable",
      "type": "function"
    },
    {
      "inputs": [
        {
          "internalType": "uint256",
          "name": "orderId",
          "type": "uint256"
        },
        {
          "internalType": "uint256",
          "name": "amount",
          "type": "uint256"
        }
      ],
      "name": "releaseFundsToSeller",
      "outputs": [],
      "stateMutability": "nonpayable",
      "type": "function"
    },
    {
      "inputs": [],
      "name": "renounceOwnership",
      "outputs": [],
      "stateMutability": "nonpayable",
      "type": "function"
    },
    {
      "inputs": [
        {
          "internalType": "uint256",
          "name": "disputeId",
          "type": "uint256"
        },
        {
          "internalType": "uint256",
          "name": "buyerAmount",
          "type": "uint256"
        },
        {
          "internalType": "uint256",
          "name": "sellerAmount",
          "type": "uint256"
        }
      ],
      "name": "resolveDispute",
      "outputs": [],
      "stateMutability": "nonpayable",
      "type": "function"
    },
    {
      "inputs": [
        {
          "internalType": "address",
          "name": "",
          "type": "address"
        },
        {
          "internalType": "uint256",
          "name": "",
          "type": "uint256"
        }
      ],
      "name": "sellerOrders",
      "outputs": [
        {
          "internalType": "uint256",
          "name": "",
          "type": "uint256"
        }
      ],
      "stateMutability": "view",
      "type": "function"
    },
    {
      "inputs": [
        {
          "internalType": "address",
          "name": "newArbitrator",
          "type": "address"
        }
      ],
      "name": "setArbitrator",
      "outputs": [],
      "stateMutability": "nonpayable",
      "type": "function"
    },
    {
      "inputs": [
        {
          "internalType": "uint256",
          "name": "deadline",
          "type": "uint256"
        }
      ],
      "name": "setAutoReleaseDeadline",
      "outputs": [],
      "stateMutability": "nonpayable",
      "type": "function"
    },
    {
      "inputs": [
        {
          "internalType": "address",
          "name": "newOwner",
          "type": "address"
        }
      ],
      "name": "transferOwnership",
      "outputs": [],
      "stateMutability": "nonpayable",
      "type": "function"
    }
  ],
  "bytecode": "0x6080346200013b57601f62002f2738819003918201601f19168301916001600160401b0383118484101762000140578084926020946040528339810103126200013b57516001600160a01b0390818116908190036200013b57331562000122576000549160018060a01b0319923384821617600055604051913391167f8be0079c531659141344cd1fd0a4f28419497f9722a3daafe3b4186f6b6457e0600080a360018055621275006006558115620000e057508160045416176004553390600554161760055560016002556001600355604051612dd09081620001578239f35b62461bcd60e51b815260206004820152601e60248201527f496e76616c69642050726f647563744c697374696e67206164647265737300006044820152606490fd5b604051631e4fbdf760e01b815260006004820152602490fd5b600080fd5b634e487b7160e01b600052604160045260246000fdfe6080604052600436101561001257600080fd5b6000803560e01c8063044ce3081461260f57806314bad16f146124795780632e6d11081461201757806334b3db8114611ff9578063375f16a714611fcd5780633fabe74f14611d775780634500cb6014611d2f57806345cb450514611cd9578063564a565d14611c195780636a21c27014611bf05780636cc6cde114611bc7578063715018a614611b6d5780638da5cb5b14611b4657806397fbc2fb14611b06578063a2d53f9a14611857578063a45f2ebc146117e1578063a85c38ef146116b6578063b0eefabe1461162a578063b6dc00c2146115c8578063b7fb98a31461149d578063c0df41ba14610ded578063d09ef24114610b82578063dc46a8e3146109e7578063e3a96cbd1461085a578063e4cbac40146107d4578063e6e87ed814610766578063ec0c81351461062c578063f2fde38b146105a1578063f8dac8d3146102825763fd84cb971461016757600080fd5b3461027f5760208060031936011261027b576004358083526007825261019d60018060a01b036001604086200154163314612b58565b808352600782526101b360408420541515612a5d565b6101bb612c94565b808352600782526040832060078101805460ff81166009811015610267576003036102225760049060ff1916179055600b429101557f5f44b21034a0cbf92d8d38000e6d77b862190069961c0c5a8cdb9b5054558c54604051924284523393a36001805580f35b60405162461bcd60e51b815260048101869052601e60248201527f4f72646572206973206e6f7420696e20534849505045442073746174757300006044820152606490fd5b634e487b7160e01b87526021600452602487fd5b5080fd5b80fd5b503461027f57604036600319011261027f576001600160401b03906024600435813584811161059d576102b9903690600401612823565b8184526007602090815260408520600201549093906001600160a01b0316330361054f57828552600784526102f360408620541515612a5d565b6102fb612c94565b828552600784526040852060078101805460ff8116600981101561053c576002036104f8578451156104b457906003600c939260ff191617905542600a820155019082519687116104a2575061035181546128bd565b601f811161045e575b508395601f81116001146103dc578086977f144beb9d021c0958b432a0a11ff4879a3ea0eeca1ab3a8bdfafe77132ba18ace959697916103d1575b508160011b916000199060031b1c19161790555b6103be604051916040835260408301906129e2565b9342908201528033940390a36001805580f35b905083015138610395565b818652848620601f198216875b8181106104475750907f144beb9d021c0958b432a0a11ff4879a3ea0eeca1ab3a8bdfafe77132ba18ace9596979883600194931061042e575b5050811b0190556103a9565b85015160001960f88460031b161c191690553880610422565b858a015183559887019860019092019187016103e9565b818652848620601f880160051c810191868910610498575b601f0160051c01905b81811061048c575061035a565b6000815560010161047f565b9091508190610476565b634e487b7160e01b8652604160045285fd5b60405162461bcd60e51b8152600481018890526018818601527f547261636b696e67206e756d62657220726571756972656400000000000000006044820152606490fd5b60405162461bcd60e51b815260048101889052601d818601527f4f72646572206973206e6f7420696e2046554e444544207374617475730000006044820152606490fd5b634e487b7160e01b895260216004528489fd5b8360226084926040519262461bcd60e51b845260048401528201527f4f6e6c792073656c6c65722063616e2063616c6c20746869732066756e63746960448201526137b760f11b6064820152fd5b8380fd5b503461027f57602036600319011261027f576105bb612879565b6105c3612d06565b6001600160a01b0390811690811561061357600054826001600160601b0360a01b821617600055167f8be0079c531659141344cd1fd0a4f28419497f9722a3daafe3b4186f6b6457e0600080a380f35b604051631e4fbdf760e01b815260048101849052602490fd5b503461027f57602036600319011261027f57600435815260076020526040812060405190610659826127e6565b805482526106af60ff60018060a01b038060018501541660208601528060028501541660408601526003840154606086015260048401546080860152600584015490811660a086015260a01c1660c08401612c42565b6106bb600682016128f7565b60e08301526101c0600d60ff600784015416926106dd61010086019485612c4e565b60088101546101208601526009810154610140860152600a810154610160860152600b810154610180860152610715600c82016128f7565b6101a0860152015492019182525191600983101561075257506004602092149081610746575b506040519015158152f35b9050514210153861073b565b634e487b7160e01b81526021600452602490fd5b503461027f57602036600319011261027f57600435610783612d06565b801561078f5760065580f35b60405162461bcd60e51b815260206004820152601f60248201527f446561646c696e65206d7573742062652067726561746572207468616e2030006044820152606490fd5b503461027f5760208060031936011261027b576001600160a01b036107f7612879565b168252600a602052604082209160405180926020855492838152019483526020832092905b8282106108435761083f8561083381890382612802565b60405191829182612a07565b0390f35b83548652948501946001938401939091019061081c565b503461027f57602036600319011261027f5780604091610120835161087e816127ca565b8281528260208201528285820152826060820152606060808201528260a08201528260c08201528260e082015282610100820152015260043581526008602052206008604051916108ce836127ca565b805483526001810154602084015260028101546001600160a01b03811660408501526109039060a01c60ff1660608501612b3f565b61090f600382016128f7565b6080840152600481015460a0840152600581015460c084015260018060a01b0360068201541660e084015260078101546101008401520154610120820152604051809160208252805160208301526020810151604083015260018060a01b03604082015116606083015261098b6060820151608084019061299c565b60808101516101206109ab610140928360a08701526101608601906129e2565b9260a081015160c086015260c081015160e086015260018060a01b0360e082015116610100860152610100810151828601520151908301520390f35b503461027f576109f6366127a1565b906109ff612c94565b8083526007602052610a1660408420541515612a5d565b808352600760205260408320600781019081549160ff83169260098410159384610af3576004811480918115610b73575b5015610b245786151580610b16575b610a5f90612aa0565b6005546001600160a01b039590861633148015610b07575b610a8090612add565b610af35791604093917ff964b81d70cd10a4e0788ea661217d72d40a0ec82649c3d9e080780680aacab99593610ae3575b5050610acd866002846005850154169301928484541690612cb7565b5416938151908152426020820152a36001805580f35b60ff191660061790553880610ab1565b634e487b7160e01b88526021600452602488fd5b50600185015486163314610a77565b506004840154871115610a56565b60405162461bcd60e51b815260206004820152602160248201527f4f72646572206973206e6f7420656c696769626c6520666f722072656c6561736044820152606560f81b6064820152608490fd5b95505060066000951438610a47565b503461027f57602036600319011261027f57604090600435816101c08451610ba9816127e6565b82815282602082015282868201528260608201528260808201528260a08201528260c0820152606060e0820152826101008201528261012082015282610140820152826101608201528261018082015260606101a082015201528082526007602052610c19838320541515612a5d565b8152600760205220600d60405191610c30836127e6565b8054835260018101546001600160a01b0390811660208501526002820154811660408501526003820154606085015260048201546080850152600582015490811660a080860191909152610c8c91901c60ff1660c08501612c42565b610c98600682016128f7565b60e0840152610cb260ff6007830154166101008501612c4e565b60088101546101208401526009810154610140840152600a810154610160840152600b810154610180840152610cea600c82016128f7565b6101a084015201546101c08201526040518091602082528051602083015260018060a01b03602082015116604083015260018060a01b03604082015116606083015260608101516080830152608081015160a083015260018060a01b0360a08201511660c0830152610d6460c082015160e0840190612a43565b60e08101516101c0610de2610d886101e093846101008801526102008701906129e2565b610d9c610100860151610120880190612a50565b6101208501516101408701526101408501516101608701526101608501516101808701526101808501516101a08701526101a0850151601f1987830301848801526129e2565b920151908301520390f35b503461027f5760c036600319011261027f57602435906001600160a01b038216820361149857606435916001600160a01b0383168303611498576003608435101561027b5760a4356001600160401b03811161149457610e51903690600401612823565b91610e5a612c94565b6001600160a01b03821615611456576001600160a01b038216331461141157604435156113cc576001600160a01b038416156113875760025492610e9d84612b1a565b600255610eac60065442612b4b565b9060405195610eba876127e6565b8587523360208801526001600160a01b038581166040890152600435606089015260443560808901521660a0870152610ef860843560c08801612c42565b60e08601526001610100860152426101208601528161014086015281610160860152816101808601526040518060208101106001600160401b0360208301111761137157602081016040528281526101a08601526101c085015282815260076020526040812093805185556001850160018060a01b03602083015116906001600160601b0360a01b9182825416179055600286019060018060a01b036040840151169082541617905560608101516003860155608081015160048601556005850160018060a01b0360a08301511681549060c0840151600381101561135d576001600160a81b03199092161760a09190911b60ff60a01b1617905560e08101518051906001600160401b03821161126a57819061101860068901546128bd565b601f811161130c575b50602090601f831160011461129d578592611292575b50508160011b916000199060031b1c19161760068601555b60078501610100820151600981101561127e5760ff8019835416911617905561012081015160088601556101408101516009860155610160810151600a860155610180810151600b8601556101a08101518051906001600160401b03821161126a576110be600c8801546128bd565b601f8111611225575b50916020969186938890601f83116001146111aa5786938360409694600d946101c09461113a9b9261119f575b50508160011b916000199060031b1c191617600c8501555b01519101553381526009875261112483838320612c5a565b6001600160a01b0385168152600a875220612c5a565b6040519060043582526044358483015261115960408301608435612a43565b4260608301526001600160a01b031690339083907fb7ede46821a78f26b71cc0b4ada62eba7beb9a39915dc3a2754905df3c55d6bf90608090a460018055604051908152f35b0151905038806110f4565b90600c8501875289872091875b601f198516811061120b575093600184600d946101c09461113a9b9860409a98601f198116106111f2575b505050811b01600c85015561110c565b015160001960f88460031b161c191690553880806111e2565b8183015184558a9750600190930192918b01918b016111b7565b600c8801855260208520601f840160051c810160208510611263575b601f830160051c820181106112575750506110c7565b60008155600101611241565b5080611241565b634e487b7160e01b84526041600452602484fd5b634e487b7160e01b84526021600452602484fd5b015190503880611037565b9250600688018552602085209085935b601f19841685106112f1576001945083601f198116106112d8575b505050811b01600686015561104f565b015160001960f88460031b161c191690553880806112c8565b818101518355602094850194600190930192909101906112ad565b90915060068801855260208520601f840160051c810160208510611356575b90849392915b601f830160051c82018110611347575050611021565b60008155859450600101611331565b508061132b565b634e487b7160e01b86526021600452602486fd5b634e487b7160e01b600052604160045260246000fd5b60405162461bcd60e51b815260206004820152601d60248201527f496e76616c6964207061796d656e7420746f6b656e20616464726573730000006044820152606490fd5b60405162461bcd60e51b815260206004820152601d60248201527f416d6f756e74206d7573742062652067726561746572207468616e20300000006044820152606490fd5b60405162461bcd60e51b815260206004820152601d60248201527f43616e6e6f742070757263686173652066726f6d20796f757273656c660000006044820152606490fd5b60405162461bcd60e51b8152602060048201526016602482015275496e76616c69642073656c6c6572206164647265737360501b6044820152606490fd5b8280fd5b600080fd5b503461027f57602036600319011261027f576004358152600760205260408120604051906114ca826127e6565b8054825260018060a01b0390816001820154169260208101938452826002830154166040820152600382015460608201526004820154608082015261152460ff600584015485811660a085015260a01c1660c08301612c42565b611530600683016128f7565b60e08201526101c0600d60ff6007850154169361155261010085019586612c4e565b60088101546101208501526009810154610140850152600a810154610160850152600b81015461018085015261158a600c82016128f7565b6101a0850152015491015251926009841015610752575060036020931491826115ba575b50506040519015158152f35b9091505116331438806115ae565b503461027f57602036600319011261027f57600435906001600160401b03821161027f57602060ff611614826116013660048801612823565b81604051938285809451938492016129bf565b8101600b81520301902054166040519015158152f35b503461027f57602036600319011261027f57611644612879565b61164c612d06565b6001600160a01b03168015611671576001600160601b0360a01b600554161760055580f35b60405162461bcd60e51b815260206004820152601a60248201527f496e76616c69642061726269747261746f7220616464726573730000000000006044820152606490fd5b503461027f57602036600319011261027f576004803582526007602052604090912080546001820154600283015460038401549484015460058501546001600160a01b03928316969390921694929391611712600685016128f7565b92600785015460ff1693600886015490600987015492600a88015494600b89015496600c8a01611741906128f7565b99600d01549a6040519d8e809e6101e096825260208201526040015260608d015260808c0152600160a01b60019003811660a08c015260c08b019060a01c60ff169061178c91612a43565b8060e08b0152890161179d916129e2565b9461010089016117ac91612a50565b6101208801526101408701526101608601526101808501528381036101a08501526117d6916129e2565b906101c08301520390f35b503461027f5760208060031936011261027b576001600160a01b03611804612879565b1682526009602052604082209160405180926020855492838152019483526020832092905b8282106118405761083f8561083381890382612802565b835486529485019460019384019390910190611829565b503461027f57611866366127a1565b908083526020906007825260018060a01b0360019361188e8286604089200154163314612b58565b828652600784526118a460408720541515612a5d565b6118ac612c94565b8286526007845260408620600781019060ff8254166009811015611af2578703611aa15760048101548303611a5157600681019060ff6118eb83612bae565b5416611a0c57600581019285845416604051906323b872dd60e01b8a8301523360248301523060448301528660648301526064825260a08201948286106001600160401b038711176113715761194a8c93611962938f98604052612d32565b60ff1993600285825416179055426009860155612bae565b9182541617905560038560045416910154813b156114945782916044839260405194859384926314a18ce160e21b845260048401528d60248401525af18015611a01576119e5575b5050907f32d343e9db2ef79eb13a8e89c6990860b2dfb80b26c5244e8078d981322c30529260409254169482519182524290820152a3805580f35b6119f1909392936127b7565b6119fd579086386119aa565b8680fd5b6040513d84823e3d90fd5b60405162461bcd60e51b815260048101889052601960248201527f5061796d656e7420616c72656164792070726f636573736564000000000000006044820152606490fd5b60405162461bcd60e51b815260048101879052602260248201527f416d6f756e7420646f6573206e6f74206d61746368206f7264657220616d6f756044820152611b9d60f21b6064820152608490fd5b60405162461bcd60e51b815260048101879052602360248201527f4f72646572206973206e6f7420696e2050454e44494e475f46554e442073746160448201526274757360e81b6064820152608490fd5b634e487b7160e01b89526021600452602489fd5b503461027f578060031936011261027f57600354600019810191908211611b3257602082604051908152f35b634e487b7160e01b81526011600452602490fd5b503461027f578060031936011261027f57546040516001600160a01b039091168152602090f35b503461027f578060031936011261027f57611b86612d06565b600080546001600160a01b0319811682556001600160a01b03167f8be0079c531659141344cd1fd0a4f28419497f9722a3daafe3b4186f6b6457e08280a380f35b503461027f578060031936011261027f576005546040516001600160a01b039091168152602090f35b503461027f578060031936011261027f576004546040516001600160a01b039091168152602090f35b503461027f57602036600319011261027f5760043581526008602052604090208054600182015460028301546001600160a01b0393919291611c5d600382016128f7565b92600482015493611cb96005840154918860068601541693611cab60086007880154970154976040519b8c9b610140948d5260208d0152811660408c015260ff60608c019160a01c1661299c565b8060808a01528801906129e2565b9460a087015260c086015260e08501526101008401526101208301520390f35b503461027f57604036600319011261027f57611cf3612879565b6001600160a01b03168152600a602052604081208054602435929083101561027f576020611d21848461288f565b90546040519160031b1c8152f35b503461027f57604036600319011261027f57611d49612879565b6001600160a01b031681526009602052604081208054602435929083101561027f576020611d21848461288f565b503461027f57606036600319011261027f576005546024359060043590604435906001600160a01b039081163303611f7957611db1612c94565b8285526020906008825260408620805415611f3b5760058101908154611ef65760018101548852600784526040882091611deb8689612b4b565b600484015403611eb3576008869392849242905560068101336001600160601b0360a01b825416179055896007820155015560078101600660ff1982541617905586611e96575b81611e77575b5050506040519384528301524260408301527ff2b306c6988ab9d9ba081e4ded2e7c9fbc64fc27639527f2b7bf0bb19194ea9260603393a36001805580f35b826002611e8e946005840154169201541690612cb7565b388281611e38565b611eae87846005840154168560018501541690612cb7565b611e32565b6064856040519062461bcd60e51b825280600483015260248201527f416d6f756e747320646f206e6f74206d61746368206f7264657220746f74616c6044820152fd5b60405162461bcd60e51b815260048101859052601860248201527f4469737075746520616c7265616479207265736f6c76656400000000000000006044820152606490fd5b60405162461bcd60e51b8152600481018490526016602482015275111a5cdc1d5d1948191bd95cc81b9bdd08195e1a5cdd60521b6044820152606490fd5b60405162461bcd60e51b815260206004820152602660248201527f4f6e6c792061726269747261746f722063616e2063616c6c20746869732066756044820152653731ba34b7b760d11b6064820152608490fd5b503461027f578060031936011261027f57600254600019810191908211611b3257602082604051908152f35b503461027f578060031936011261027f576020600654604051908152f35b503461027f57606036600319011261027f576006602435101561027f576044356001600160401b03811161027b57612053903690600401612823565b61205b612c94565b6004358252600760205261207460408320541515612a5d565b600435825260076020526040822060018101546001600160a01b031633148015612463575b156124105760ff6007820154166009811015806123fc576006821415806123ee575b156123a95761127e5760051461236457600354916120d883612b1a565b600355604051906120e8826127ca565b838252600435602083015233604083015261210860243560608401612b3f565b60808201524260a08201528360c08201528360e082015283610100820152836101208201528284526008602052604084209080518255602081015160018301556002820160018060a01b0360408301511681549060608401516006811015611af2576001600160a81b03199092161760a09190911b60ff60a01b161790556080810151805190956001600160401b038211612350576121aa60038501546128bd565b96601f881161230b575b602097508791601f841160011461229a5792600894928192610120959261228f575b50508160011b916000199060031b1c19161760038501555b60a0810151600485015560c081015160058501556006840160018060a01b0360e0830151166001600160601b0360a01b825416179055610100810151600785015501519101556007600560ff198284015416179101556040516122538160243561299c565b42838201523390827f3b9a390268453af3a005776dd6dd9e86fa48d4d109153b33a5d558f53018f1ca604060043593a460018055604051908152f35b0151905038806121d6565b9190600386018352888320925b601f19851681106122f4575092600894926001926101209583601f198116106122db575b505050811b0160038501556121ee565b015160001960f88460031b161c191690553880806122cb565b9192896001819286850151815501940192016122a7565b60038501825260208220601f840160051c810160208510612349575b601f8a0160051c8201811061233d5750506121b4565b60008155600101612327565b5080612327565b634e487b7160e01b81526041600452602490fd5b60405162461bcd60e51b815260206004820152601860248201527f4f7264657220616c726561647920696e206469737075746500000000000000006044820152606490fd5b60405162461bcd60e51b815260206004820152601e60248201527f43616e6e6f74206469737075746520636f6d706c65746564206f7264657200006044820152606490fd5b5050600060088214156120bb565b634e487b7160e01b85526021600452602485fd5b60405162461bcd60e51b815260206004820152602560248201527f4f6e6c79206275796572206f722073656c6c65722063616e206f70656e206469604482015264737075746560d81b6064820152608490fd5b5060028101546001600160a01b03163314612099565b503461027f5760208060031936011261027b57600435612497612c94565b808352600782526124ad60408420541515612a5d565b808352600782526040832060078101805460ff81166009811015610267576004036125cc57600d830154421061257d5760ff191660061790556005810154600282018054600490930180547ff964b81d70cd10a4e0788ea661217d72d40a0ec82649c3d9e080780680aacab9946040946001600160a01b039392612538929091908516908516612cb7565b5491857f23ed6b230fcc513a558e2be19c9012c35997e76cd4fdab40aabe44ecb876d63d858051868152428b820152a254169482519182524290820152a36001805580f35b60405162461bcd60e51b815260048101869052602160248201527f4175746f2d72656c6561736520646561646c696e65206e6f74207265616368656044820152601960fa1b6064820152608490fd5b6064856040519062461bcd60e51b825280600483015260248201527f4f72646572206973206e6f7420696e2044454c495645524544207374617475736044820152fd5b503461027f5761261e366127a1565b90612627612c94565b808352600760205261263e60408420541515612a5d565b80835260076020526040832082151580612793575b61265c90612aa0565b6005546001600160a01b039190821633148015612784575b61267d90612add565b6007810160ff81541660098110156102675760028114908115612779575b506126ec575b916040917fe27f5f11612a53ad16073e57afb22bd6020c5c8a2777a75a6ca9d266336ec72f93600860ff19825416179055610acd866001846005850154169301928484541690612cb7565b858360045416600384015490803b1561149457604483926040519485938492630e00ead160e21b84526004840152600160248401525af1801561276e57612734575b506126a1565b917fe27f5f11612a53ad16073e57afb22bd6020c5c8a2777a75a6ca9d266336ec72f9391966127646040946127b7565b969193509161272e565b6040513d89823e3d90fd5b60039150143861269b565b50600281015482163314612674565b506004810154831115612653565b6040906003190112611498576004359060243590565b6001600160401b03811161137157604052565b61014081019081106001600160401b0382111761137157604052565b6101e081019081106001600160401b0382111761137157604052565b90601f801991011681019081106001600160401b0382111761137157604052565b81601f82011215611498578035906001600160401b0382116113715760405192612857601f8401601f191660200185612802565b8284526020838301011161149857816000926020809301838601378301015290565b600435906001600160a01b038216820361149857565b80548210156128a75760005260206000200190600090565b634e487b7160e01b600052603260045260246000fd5b90600182811c921680156128ed575b60208310146128d757565b634e487b7160e01b600052602260045260246000fd5b91607f16916128cc565b9060405191826000825461290a816128bd565b9081845260209460019160018116908160001461297a575060011461293b575b50505061293992500383612802565b565b600090815285812095935091905b818310612962575050612939935082010138808061292a565b85548884018501529485019487945091830191612949565b9250505061293994925060ff191682840152151560051b82010138808061292a565b9060068210156129a95752565b634e487b7160e01b600052602160045260246000fd5b60005b8381106129d25750506000910152565b81810151838201526020016129c2565b906020916129fb815180928185528580860191016129bf565b601f01601f1916010190565b602090602060408183019282815285518094520193019160005b828110612a2f575050505090565b835185529381019392810192600101612a21565b9060038210156129a95752565b9060098210156129a95752565b15612a6457565b60405162461bcd60e51b815260206004820152601460248201527313dc99195c88191bd95cc81b9bdd08195e1a5cdd60621b6044820152606490fd5b15612aa757565b60405162461bcd60e51b815260206004820152600e60248201526d125b9d985b1a5908185b5bdd5b9d60921b6044820152606490fd5b15612ae457565b60405162461bcd60e51b815260206004820152600e60248201526d139bdd08185d5d1a1bdc9a5e995960921b6044820152606490fd5b6000198114612b295760010190565b634e487b7160e01b600052601160045260246000fd5b60068210156129a95752565b91908201809211612b2957565b15612b5f57565b60405162461bcd60e51b815260206004820152602160248201527f4f6e6c792062757965722063616e2063616c6c20746869732066756e6374696f6044820152603760f91b6064820152608490fd5b604051908160008254612bc0816128bd565b93600191808316908115612c265750600114612be8575b505060209250600b81520301902090565b9091506000526020906020600020906000915b858310612c12575050505060209181013880612bd7565b805487840152869450918301918101612bfb565b92505050602093915060ff191682528015150281013880612bd7565b60038210156129a95752565b60098210156129a95752565b80546801000000000000000081101561137157612c7c9160018201815561288f565b819291549060031b91821b91600019901b1916179055565b600260015414612ca5576002600155565b604051633ee5aeb560e01b8152600490fd5b60405163a9059cbb60e01b60208201526001600160a01b03909216602483015260448083019390935291815260808101916001600160401b038311828410176113715761293992604052612d32565b6000546001600160a01b03163303612d1a57565b60405163118cdaa760e01b8152336004820152602490fd5b906000602091828151910182855af115612d8e576000513d612d8557506001600160a01b0381163b155b612d635750565b604051635274afe760e01b81526001600160a01b039091166004820152602490fd5b60011415612d5c565b6040513d6000823e3d90fdfea26469706673582212203d7f65583d4d78674e4f2175bff2386ebbbce3fa5e1080bcdd42eafe87f9f78f64736f6c63430008180033",
  "linkReferences": {},
  "deployedLinkReferences": {}
}