{
  "_format": "hh-sol-artifact-1",
  "contractName": "ProductListingContract",
  "sourceName": "contracts/ProductListingContract.sol",
  "abi": [
    {
      "inputs": [],
      "stateMutability": "nonpayable",
      "type": "constructor"
    },
    {
      "inputs": [
        {
          "internalType": "address",
          "name": "owner",
          "type": "address"
        }
      ],
      "name": "OwnableInvalidOwner",
      "type": "error"
    },
    {
      "inputs": [
        {
          "internalType": "address",
          "name": "account",
          "type": "address"
        }
      ],
      "name": "OwnableUnauthorizedAccount",
      "type": "error"
    },
    {
      "inputs": [],
      "name": "ReentrancyGuardReentrantCall",
      "type": "error"
    },
    {
      "anonymous": false,
      "inputs": [
        {
          "indexed": true,
          "internalType": "uint256",
          "name": "productId",
          "type": "uint256"
        },
        {
          "indexed": false,
          "internalType": "uint256",
          "name": "previousInventory",
          "type": "uint256"
        },
        {
          "indexed": false,
          "internalType": "uint256",
          "name": "newInventory",
          "type": "uint256"
        },
        {
          "indexed": false,
          "internalType": "uint256",
          "name": "timestamp",
          "type": "uint256"
        }
      ],
      "name": "InventoryReduced",
      "type": "event"
    },
    {
      "anonymous": false,
      "inputs": [
        {
          "indexed": true,
          "internalType": "uint256",
          "name": "productId",
          "type": "uint256"
        },
        {
          "indexed": false,
          "internalType": "uint256",
          "name": "previousInventory",
          "type": "uint256"
        },
        {
          "indexed": false,
          "internalType": "uint256",
          "name": "newInventory",
          "type": "uint256"
        },
        {
          "indexed": false,
          "internalType": "uint256",
          "name": "timestamp",
          "type": "uint256"
        }
      ],
      "name": "InventoryRestored",
      "type": "event"
    },
    {
      "anonymous": false,
      "inputs": [
        {
          "indexed": true,
          "internalType": "uint256",
          "name": "productId",
          "type": "uint256"
        },
        {
          "indexed": true,
          "internalType": "address",
          "name": "seller",
          "type": "address"
        },
        {
          "indexed": false,
          "internalType": "string",
          "name": "name",
          "type": "string"
        },
        {
          "indexed": false,
          "internalType": "uint256",
          "name": "price",
          "type": "uint256"
        },
        {
          "indexed": false,
          "internalType": "uint256",
          "name": "inventory",
          "type": "uint256"
        },
        {
          "indexed": false,
          "internalType": "uint256",
          "name": "timestamp",
          "type": "uint256"
        }
      ],
      "name": "ListingCreated",
      "type": "event"
    },
    {
      "anonymous": false,
      "inputs": [
        {
          "indexed": true,
          "internalType": "uint256",
          "name": "productId",
          "type": "uint256"
        },
        {
          "indexed": true,
          "internalType": "address",
          "name": "seller",
          "type": "address"
        },
        {
          "indexed": false,
          "internalType": "uint256",
          "name": "timestamp",
          "type": "uint256"
        }
      ],
      "name": "ListingDeactivated",
      "type": "event"
    },
    {
      "anonymous": false,
      "inputs": [
        {
          "indexed": true,
          "internalType": "uint256",
          "name": "productId",
          "type": "uint256"
        },
        {
          "indexed": false,
          "internalType": "uint256",
          "name": "newPrice",
          "type": "uint256"
        },
        {
          "indexed": false,
          "internalType": "uint256",
          "name": "newInventory",
          "type": "uint256"
        },
        {
          "indexed": false,
          "internalType": "uint256",
          "name": "timestamp",
          "type": "uint256"
        }
      ],
      "name": "ListingUpdated",
      "type": "event"
    },
    {
      "anonymous": false,
      "inputs": [
        {
          "indexed": true,
          "internalType": "address",
          "name": "previousOwner",
          "type": "address"
        },
        {
          "indexed": true,
          "internalType": "address",
          "name": "newOwner",
          "type": "address"
        }
      ],
      "name": "OwnershipTransferred",
      "type": "event"
    },
    {
      "inputs": [
        {
          "internalType": "uint256",
          "name": "",
          "type": "uint256"
        }
      ],
      "name": "activeProductIds",
      "outputs": [
        {
          "internalType": "uint256",
          "name": "",
          "type": "uint256"
        }
      ],
      "stateMutability": "view",
      "type": "function"
    },
    {
      "inputs": [
        {
          "internalType": "string",
          "name": "name",
          "type": "string"
        },
        {
          "internalType": "string",
          "name": "description",
          "type": "string"
        },
        {
          "internalType": "string",
          "name": "category",
          "type": "string"
        },
        {
          "internalType": "uint256",
          "name": "price",
          "type": "uint256"
        },
        {
          "internalType": "address",
          "name": "priceToken",
          "type": "address"
        },
        {
          "internalType": "uint256",
          "name": "initialInventory",
          "type": "uint256"
        },
        {
          "internalType": "string",
          "name": "ipfsHash",
          "type": "string"
        }
      ],
      "name": "createListing",
      "outputs": [
        {
          "internalType": "uint256",
          "name": "",
          "type": "uint256"
        }
      ],
      "stateMutability": "nonpayable",
      "type": "function"
    },
    {
      "inputs": [
        {
          "internalType": "uint256",
          "name": "productId",
          "type": "uint256"
        }
      ],
      "name": "deactivateListing",
      "outputs": [],
      "stateMutability": "nonpayable",
      "type": "function"
    },
    {
      "inputs": [
        {
          "internalType": "uint256",
          "name": "offset",
          "type": "uint256"
        },
        {
          "internalType": "uint256",
          "name": "limit",
          "type": "uint256"
        }
      ],
      "name": "getActiveProductIds",
      "outputs": [
        {
          "internalType": "uint256[]",
          "name": "",
          "type": "uint256[]"
        }
      ],
      "stateMutability": "view",
      "type": "function"
    },
    {
      "inputs": [
        {
          "internalType": "uint256",
          "name": "offset",
          "type": "uint256"
        },
        {
          "internalType": "uint256",
          "name": "limit",
          "type": "uint256"
        }
      ],
      "name": "getAllActiveProducts",
      "outputs": [
        {
          "components": [
            {
              "internalType": "uint256",
              "name": "productId",
              "type": "uint256"
            },
            {
              "internalType": "address",
              "name": "seller",
              "type": "address"
            },
            {
              "internalType": "string",
              "name": "name",
              "type": "string"
            },
            {
              "internalType": "string",
              "name": "description",
              "type": "string"
            },
            {
              "internalType": "string",
              "name": "category",
              "type": "string"
            },
            {
              "internalType": "uint256",
              "name": "price",
              "type": "uint256"
            },
            {
              "internalType": "address",
              "name": "priceToken",
              "type": "address"
            },
            {
              "internalType": "uint256",
              "name": "inventory",
              "type": "uint256"
            },
            {
              "internalType": "uint256",
              "name": "sold",
              "type": "uint256"
            },
            {
              "internalType": "string",
              "name": "ipfsHash",
              "type": "string"
            },
            {
              "internalType": "bool",
              "name": "isActive",
              "type": "bool"
            },
            {
              "internalType": "uint256",
              "name": "createdAt",
              "type": "uint256"
            },
            {
              "internalType": "uint256",
              "name": "updatedAt",
              "type": "uint256"
            }
          ],
          "internalType": "struct ProductListingContract.Product[]",
          "name": "",
          "type": "tuple[]"
        }
      ],
      "stateMutability": "view",
      "type": "function"
    },
    {
      "inputs": [
        {
          "internalType": "uint256",
          "name": "productId",
          "type": "uint256"
        }
      ],
      "name": "getProduct",
      "outputs": [
        {
          "components": [
            {
              "internalType": "uint256",
              "name": "productId",
              "type": "uint256"
            },
            {
              "internalType": "address",
              "name": "seller",
              "type": "address"
            },
            {
              "internalType": "string",
              "name": "name",
              "type": "string"
            },
            {
              "internalType": "string",
              "name": "description",
              "type": "string"
            },
            {
              "internalType": "string",
              "name": "category",
              "type": "string"
            },
            {
              "internalType": "uint256",
              "name": "price",
              "type": "uint256"
            },
            {
              "internalType": "address",
              "name": "priceToken",
              "type": "address"
            },
            {
              "internalType": "uint256",
              "name": "inventory",
              "type": "uint256"
            },
            {
              "internalType": "uint256",
              "name": "sold",
              "type": "uint256"
            },
            {
              "internalType": "string",
              "name": "ipfsHash",
              "type": "string"
            },
            {
              "internalType": "bool",
              "name": "isActive",
              "type": "bool"
            },
            {
              "internalType": "uint256",
              "name": "createdAt",
              "type": "uint256"
            },
            {
              "internalType": "uint256",
              "name": "updatedAt",
              "type": "uint256"
            }
          ],
          "internalType": "struct ProductListingContract.Product",
          "name": "",
          "type": "tuple"
        }
      ],
      "stateMutability": "view",
      "type": "function"
    },
    {
      "inputs": [
        {
          "internalType": "address",
          "name": "seller",
          "type": "address"
        }
      ],
      "name": "getSellerProducts",
      "outputs": [
        {
          "internalType": "uint256[]",
          "name": "",
          "type": "uint256[]"
        }
      ],
      "stateMutability": "view",
      "type": "function"
    },
    {
      "inputs": [],
      "name": "getTotalActiveProducts",
      "outputs": [
        {
          "internalType": "uint256",
          "name": "",
          "type": "uint256"
        }
      ],
      "stateMutability": "view",
      "type": "function"
    },
    {
      "inputs": [],
      "name": "getTotalProducts",
      "outputs": [
        {
          "internalType": "uint256",
          "name": "",
          "type": "uint256"
        }
      ],
      "stateMutability": "view",
      "type": "function"
    },
    {
      "inputs": [
        {
          "internalType": "uint256",
          "name": "productId",
          "type": "uint256"
        },
        {
          "internalType": "uint256",
          "name": "quantity",
          "type": "uint256"
        }
      ],
      "name": "isProductAvailable",
      "outputs": [
        {
          "internalType": "bool",
          "name": "",
          "type": "bool"
        }
      ],
      "stateMutability": "view",
      "type": "function"
    },
    {
      "inputs": [],
      "name": "owner",
      "outputs": [
        {
          "internalType": "address",
          "name": "",
          "type": "address"
        }
      ],
      "stateMutability": "view",
      "type": "function"
    },
    {
      "inputs": [
        {
          "internalType": "uint256",
          "name": "",
          "type": "uint256"
        }
      ],
      "name": "productExists",
      "outputs": [
        {
          "internalType": "bool",
          "name": "",
          "type": "bool"
        }
      ],
      "stateMutability": "view",
      "type": "function"
    },
    {
      "inputs": [
        {
          "internalType": "uint256",
          "name": "",
          "type": "uint256"
        }
      ],
      "name": "products",
      "outputs": [
        {
          "internalType": "uint256",
          "name": "productId",
          "type": "uint256"
        },
        {
          "internalType": "address",
          "name": "seller",
          "type": "address"
        },
        {
          "internalType": "string",
          "name": "name",
          "type": "string"
        },
        {
          "internalType": "string",
          "name": "description",
          "type": "string"
        },
        {
          "internalType": "string",
          "name": "category",
          "type": "string"
        },
        {
          "internalType": "uint256",
          "name": "price",
          "type": "uint256"
        },
        {
          "internalType": "address",
          "name": "priceToken",
          "type": "address"
        },
        {
          "internalType": "uint256",
          "name": "inventory",
          "type": "uint256"
        },
        {
          "internalType": "uint256",
          "name": "sold",
          "type": "uint256"
        },
        {
          "internalType": "string",
          "name": "ipfsHash",
          "type": "string"
        },
        {
          "internalType": "bool",
          "name": "isActive",
          "type": "bool"
        },
        {
          "internalType": "uint256",
          "name": "createdAt",
          "type": "uint256"
        },
        {
          "internalType": "uint256",
          "name": "updatedAt",
          "type": "uint256"
        }
      ],
      "stateMutability": "view",
      "type": "function"
    },
    {
      "inputs": [
        {
          "internalType": "uint256",
          "name": "productId",
          "type": "uint256"
        },
        {
          "internalType": "uint256",
          "name": "quantity",
          "type": "uint256"
        }
      ],
      "name": "reduceInventory",
      "outputs": [],
      "stateMutability": "nonpayable",
      "type": "function"
    },
    {
      "inputs": [],
      "name": "renounceOwnership",
      "outputs": [],
      "stateMutability": "nonpayable",
      "type": "function"
    },
    {
      "inputs": [
        {
          "internalType": "uint256",
          "name": "productId",
          "type": "uint256"
        },
        {
          "internalType": "uint256",
          "name": "quantity",
          "type": "uint256"
        }
      ],
      "name": "restoreInventory",
      "outputs": [],
      "stateMutability": "nonpayable",
      "type": "function"
    },
    {
      "inputs": [
        {
          "internalType": "address",
          "name": "",
          "type": "address"
        },
        {
          "internalType": "uint256",
          "name": "",
          "type": "uint256"
        }
      ],
      "name": "sellerProducts",
      "outputs": [
        {
          "internalType": "uint256",
          "name": "",
          "type": "uint256"
        }
      ],
      "stateMutability": "view",
      "type": "function"
    },
    {
      "inputs": [
        {
          "internalType": "address",
          "name": "newOwner",
          "type": "address"
        }
      ],
      "name": "transferOwnership",
      "outputs": [],
      "stateMutability": "nonpayable",
      "type": "function"
    },
    {
      "inputs": [
        {
          "internalType": "uint256",
          "name": "productId",
          "type": "uint256"
        },
        {
          "internalType": "string",
          "name": "name",
          "type": "string"
        },
        {
          "internalType": "string",
          "name": "description",
          "type": "string"
        },
        {
          "internalType": "string",
          "name": "category",
          "type": "string"
        },
        {
          "internalType": "uint256",
          "name": "price",
          "type": "uint256"
        },
        {
          "internalType": "address",
          "name": "priceToken",
          "type": "address"
        },
        {
          "internalType": "uint256",
          "name": "inventory",
          "type": "uint256"
        },
        {
          "internalType": "string",
          "name": "ipfsHash",
          "type": "string"
        }
      ],
      "name": "updateListing",
      "outputs": [],
      "stateMutability": "nonpayable",
      "type": "function"
    }
  ],
  "bytecode": "0x6080806040523461008357331561006d5760008054336001600160a01b03198216811783556040519290916001600160a01b0316907f8be0079c531659141344cd1fd0a4f28419497f9722a3daafe3b4186f6b6457e09080a360018055600160025561219490816100898239f35b631e4fbdf760e01b815260006004820152602490fd5b600080fdfe6080604052600436101561001257600080fd5b60003560e01c80630bd454e4146119ff578063263d224c146113e357806332c319aa146111f65780633803ab441461111a5780633b8d915f14610f8f5780635286338414610e3f578063570aea8a14610e14578063715018a614610dbb5780637acc0b2014610ca05780638115a14714610c825780638da5cb5b14610c59578063976a72b91461049a578063af55ed6414610469578063b9db15b414610358578063c1302b341461030e578063e6a93e1614610287578063f2fde38b146101fe578063fbf3c5d8146101c75763fed0f637146100ed57600080fd5b346101c25761013c6100fe36611a22565b9080929161012d6006549182841080156101ba575b61011c90611f8b565b610127811515611fce565b8361201a565b908082116101b2575b50612027565b61014581612034565b916101536040519384611a54565b818352601f1961016283612034565b0136602085013760005b82811061018557604051806101818682611d2b565b0390f35b8061019a6101956001938561201a565b611cc6565b90549060031b1c6101ab82876120af565b520161016c565b905038610136565b508215610113565b600080fd5b346101c25760203660031901126101c2576004356006548110156101c2576101f0602091611cc6565b90546040519160031b1c8152f35b346101c25760203660031901126101c257610217611acb565b61021f612132565b6001600160a01b0390811690811561026e57600054826001600160601b0360a01b821617600055167f8be0079c531659141344cd1fd0a4f28419497f9722a3daafe3b4186f6b6457e0600080a3005b604051631e4fbdf760e01b815260006004820152602490fd5b346101c2576020806003193601126101c2576001600160a01b036102a9611acb565b1660005260046020526040600020906040519081602084549182815201936000526020600020916000905b8282106102f757610181856102eb81890382611a54565b60405191829182611d2b565b8354865294850194600193840193909101906102d4565b346101c25760403660031901126101c257610327611acb565b6001600160a01b03166000908152600460205260409020805460243591908210156101c2576020916101f091611d13565b346101c2576020806003193601126101c25760043561037561204b565b50806000526005825261038f60ff60406000205416611e5e565b60005260038152604060002090600c604051926103ab84611a38565b8054845260018101546001600160a01b03908116848601526103cf60028301611c21565b60408601526103e060038301611c21565b60608601526103f160048301611c21565b6080860152600582015460a086015260068201541660c0850152600781015460e0850152600881015461010085015261042c60098201611c21565b61012085015260ff600a820154161515610140850152600b8101546101608501520154610180830152610181604051928284938452830190611b21565b346101c25760203660031901126101c2576004356000526005602052602060ff604060002054166040519015158152f35b346101c25760e03660031901126101c2576004356001600160401b0381116101c2576104ca903690600401611a75565b6024356001600160401b0381116101c2576104e9903690600401611a75565b6044356001600160401b0381116101c257610508903690600401611a75565b906084356001600160a01b03811681036101c25760c4356001600160401b0381116101c25761053b903690600401611a75565b9061054461210f565b61055085511515611efb565b61055d6064351515611f3f565b600254936000198514610c4357600185016002556040519361057e85611a38565b8585523360208601528660408601526060850152608084015260643560a084015260018060a01b031660c083015260a43560e08301526000610100830152610120820152600161014082015242610160820152426101808201528160005260036020526040600020815181556001810160018060a01b036020840151166001600160601b0360a01b82541617905560408201518051906001600160401b0382116108ed5781906106316002850154611be7565b601f8111610bf0575b50602090601f8311600114610b7e57600092610b73575b50508160011b916000199060031b1c19161760028201555b60608201518051906001600160401b0382116108ed57819061068e6003850154611be7565b601f8111610b20575b50602090601f8311600114610aae57600092610aa3575b50508160011b916000199060031b1c19161760038201555b60808201518051906001600160401b0382116108ed5781906106eb6004850154611be7565b601f8111610a50575b50602090601f83116001146109de576000926109d3575b50508160011b916000199060031b1c19161760048201555b60a082015160058201556006810160018060a01b0360c0840151166001600160601b0360a01b82541617905560e0820151600782015561010082015160088201556101208201518051906001600160401b0382116108ed57819061078a6009850154611be7565b601f8111610980575b50602090601f831160011461090e57600092610903575b50508160011b916000199060031b1c19161760098201555b600c610180600a83019361014081015115159460ff199560ff878354169116179055610160810151600b850155015191015581600052600560205260016040600020918254161790553360005260046020526040600020918254926801000000000000000093848110156108ed576108448161085d9360018794018155611d13565b90919082549060031b91821b91600019901b1916179055565b60065492826000526007602052836040600020558310156108ed5761088e8261084485600160209701600655611cc6565b817f43550f13c12173d80300db2c62b14009bf287833958a3ca9042ff2d2d11dd6116108c560405193608085526080850190611ae1565b926064358682015260a43560408201524260608201528033940390a360018055604051908152f35b634e487b7160e01b600052604160045260246000fd5b0151905086806107aa565b9250600984016000526020600020906000935b601f1984168510610965576001945083601f1981161061094c575b505050811b0160098201556107c2565b015160001960f88460031b161c1916905586808061093c565b81810151835560209485019460019093019290910190610921565b909150600984016000526020600020601f840160051c8101602085106109cc575b90849392915b601f830160051c820181106109bd575050610793565b600081558594506001016109a7565b50806109a1565b01519050868061070b565b9250600484016000526020600020906000935b601f1984168510610a35576001945083601f19811610610a1c575b505050811b016004820155610723565b015160001960f88460031b161c19169055868080610a0c565b818101518355602094850194600190930192909101906109f1565b909150600484016000526020600020601f840160051c810160208510610a9c575b90849392915b601f830160051c82018110610a8d5750506106f4565b60008155859450600101610a77565b5080610a71565b0151905086806106ae565b9250600384016000526020600020906000935b601f1984168510610b05576001945083601f19811610610aec575b505050811b0160038201556106c6565b015160001960f88460031b161c19169055868080610adc565b81810151835560209485019460019093019290910190610ac1565b909150600384016000526020600020601f840160051c810160208510610b6c575b90849392915b601f830160051c82018110610b5d575050610697565b60008155859450600101610b47565b5080610b41565b015190508680610651565b9250600284016000526020600020906000935b601f1984168510610bd5576001945083601f19811610610bbc575b505050811b016002820155610669565b015160001960f88460031b161c19169055868080610bac565b81810151835560209485019460019093019290910190610b91565b909150600284016000526020600020601f840160051c810160208510610c3c575b90849392915b601f830160051c82018110610c2d57505061063a565b60008155859450600101610c17565b5080610c11565b634e487b7160e01b600052601160045260246000fd5b346101c25760003660031901126101c2576000546040516001600160a01b039091168152602090f35b346101c25760003660031901126101c2576020600654604051908152f35b346101c25760203660031901126101c2576004356000908152600360205260409020805460018201546001600160a01b0390811692610ce160028201611c21565b90610cee60038201611c21565b92610cfb60048301611c21565b90600583015490600684015416600784015460088501549160098601610d2090611c21565b94600a87015460ff1698600b88015497600c0154986040519c8d9c8d6101a092839282526020820152604001528c01610d5891611ae1565b8b810360608d0152610d6991611ae1565b8a810360808c0152610d7a91611ae1565b9360a08a015260c089015260e0880152610100870152858103610120870152610da291611ae1565b9215156101408501526101608401526101808301520390f35b346101c25760003660031901126101c257610dd4612132565b600080546001600160a01b0319811682556001600160a01b03167f8be0079c531659141344cd1fd0a4f28419497f9722a3daafe3b4186f6b6457e08280a3005b346101c25760003660031901126101c2576002546000198101908111610c4357602090604051908152f35b346101c257610e4d36611a22565b816000526005602052610e6760ff60406000205416611e5e565b610e6f61210f565b8160005260036020526040600020610e888215156120c3565b60078101805491838310610f515760ff600a8201541615610f145783610ecf7f7325ed6412d982ef4144739f385cba13787e69f1b1fdaff6e78be83be1c8b6789585612027565b809355610ee16008830191825461201a565b9055600c42910155610f0b6040519283924291846040919493926060820195825260208201520152565b0390a260018055005b60405162461bcd60e51b815260206004820152601560248201527450726f64756374206973206e6f742061637469766560581b6044820152606490fd5b60405162461bcd60e51b8152602060048201526016602482015275496e73756666696369656e7420696e76656e746f727960501b6044820152606490fd5b346101c2576020806003193601126101c2576004358060005260058252610fbd60ff60406000205416611e5e565b8060005260038252610fe060018060a01b03600160406000200154163314611ea3565b610fe861210f565b80600052600382526040600020600a8101805460ff8116156110d55760ff19169055600c4291015580600052600782526040600020546006549060001991828101908111610c435761103990611cc6565b90549060031b1c61104d8161084484611cc6565b6000526007845260406000205560065480156110bf5781019061106f82611cc6565b909182549160031b1b191690556006558060005260078252600060408120557f780523caa1141f8cbd4b95fe750c8dd4f933823554e27442f2f1740576194be5604051924284523393a360018055005b634e487b7160e01b600052603160045260246000fd5b60405162461bcd60e51b815260048101869052601b60248201527f4c697374696e6720697320616c726561647920696e61637469766500000000006044820152606490fd5b346101c25761112836611a22565b81600052600560205261114260ff60406000205416611e5e565b61114a61210f565b81600052600360205260406000206111638215156120c3565b60088101918254918183106111b1577ff66b2e81b97805c557c67b864653b5b9017594c2c37f0136b393fa77f250159d93610ee160078301938454956111a9828861201a565b809655612027565b60405162461bcd60e51b815260206004820152601d60248201527f43616e6e6f7420726573746f7265206d6f7265207468616e20736f6c640000006044820152606490fd5b346101c25761120436611a22565b611232826006926112246006549182841080156101ba5761011c90611f8b565b908082116113db5750612027565b61123b81612034565b916112496040519384611a54565b81835261125582612034565b60209490601f19018560005b8281106113c55750505060005b8381106112d357604080518781528651818901819052600092600582901b8301810191898b01918b9085015b8287106112a75785850386f35b9091929382806112c3600193603f198a82030186528851611b21565b960192019601959291909261129a565b806112e36101956001938561201a565b9054600391821b1c600052808852600c60406000206040519261130584611a38565b81548452611335868060a01b03918288850154168d87015261132960028501611c21565b60408701528301611c21565b606085015261134660048301611c21565b6080850152600582015460a0850152878201541660c0840152600781015460e0840152600881015461010084015261138060098201611c21565b61012084015260ff600a820154161515610140840152600b81015461016084015201546101808201526113b382886120af565b526113be81876120af565b500161126e565b6113cd61204b565b828289010152018690611261565b905085610136565b346101c2576101003660031901126101c2576024356001600160401b0381116101c257611414903690600401611a75565b6044356001600160401b0381116101c257611433903690600401611a75565b906064356001600160401b0381116101c257611453903690600401611a75565b60a435906001600160a01b039081831683036101c25760e4356001600160401b0381116101c257611488903690600401611a75565b9460043560005260056020526114a560ff60406000205416611e5e565b60043560005260036020526114c583600160406000200154163314611ea3565b6114cd61210f565b6114d985511515611efb565b6114e66084351515611f3f565b60043560005260036020526040600020948051906001600160401b0382116108ed5781906115176002890154611be7565b601f81116119ac575b50602090601f831160011461193a5760009261192f575b50508160011b916000199060031b1c19161760028601555b8051906001600160401b0382116108ed57819061156f6003880154611be7565b601f81116118dc575b50602090601f831160011461186a5760009261185f575b50508160011b916000199060031b1c19161760038501555b8051906001600160401b0382116108ed5781906115c76004870154611be7565b601f811161180c575b50602090601f831160011461179a5760009261178f575b50508160011b916000199060031b1c19161760048401555b60843560058401556006830191166001600160601b0360a01b82541617905560c435600782015581516001600160401b0381116108ed576116436009830154611be7565b601f8111611744575b50602092601f82116001146116da57928192936000926116cf575b50508160011b916000199060031b1c19161760098201555b600c429101556040517f249b4fd7f31ce1b27cdf920c73f8526880c641036b50f96dc78f49d5166f58536004359180610f0b4260c435608435846040919493926060820195825260208201520152565b015190508380611667565b601f198216936009840160005260206000209160005b86811061172c5750836001959610611713575b505050811b01600982015561167f565b015160001960f88460031b161c19169055838080611703565b919260206001819286850151815501940192016116f0565b600983016000526020600020601f830160051c81019160208410611785575b601f0160051c01905b818110611779575061164c565b6000815560010161176c565b9091508190611763565b0151905086806115e7565b9250600486016000526020600020906000935b601f19841685106117f1576001945083601f198116106117d8575b505050811b0160048401556115ff565b015160001960f88460031b161c191690558680806117c8565b818101518355602094850194600190930192909101906117ad565b909150600486016000526020600020601f840160051c810160208510611858575b90849392915b601f830160051c820181106118495750506115d0565b60008155859450600101611833565b508061182d565b01519050878061158f565b9250600387016000526020600020906000935b601f19841685106118c1576001945083601f198116106118a8575b505050811b0160038501556115a7565b015160001960f88460031b161c19169055878080611898565b8181015183556020948501946001909301929091019061187d565b909150600387016000526020600020601f840160051c810160208510611928575b90849392915b601f830160051c82018110611919575050611578565b60008155859450600101611903565b50806118fd565b015190508880611537565b9250600288016000526020600020906000935b601f1984168510611991576001945083601f19811610611978575b505050811b01600286015561154f565b015160001960f88460031b161c19169055888080611968565b8181015183556020948501946001909301929091019061194d565b909150600288016000526020600020601f840160051c8101602085106119f8575b90849392915b601f830160051c820181106119e9575050611520565b600081558594506001016119d3565b50806119cd565b346101c2576020611a18611a1236611a22565b90611d67565b6040519015158152f35b60409060031901126101c2576004359060243590565b6101a081019081106001600160401b038211176108ed57604052565b90601f801991011681019081106001600160401b038211176108ed57604052565b81601f820112156101c2578035906001600160401b0382116108ed5760405192611aa9601f8401601f191660200185611a54565b828452602083830101116101c257816000926020809301838601378301015290565b600435906001600160a01b03821682036101c257565b919082519283825260005b848110611b0d575050826000602080949584010152601f8019910116010190565b602081830181015184830182015201611aec565b90611bc16101a083518352611b82611b70611b5e60208701519360018060a01b038095166020880152604088015190806040890152870190611ae1565b60608701518682036060880152611ae1565b60808601518582036080870152611ae1565b9060a085015160a085015260c08501511660c084015260e084015160e08401526101008085015190840152610120808501519084830390850152611ae1565b916101408082015115159083015261016080820151908301526101808091015191015290565b90600182811c92168015611c17575b6020831014611c0157565b634e487b7160e01b600052602260045260246000fd5b91607f1691611bf6565b90604051918260008254611c3481611be7565b90818452602094600191600181169081600014611ca45750600114611c65575b505050611c6392500383611a54565b565b600090815285812095935091905b818310611c8c575050611c639350820101388080611c54565b85548884018501529485019487945091830191611c73565b92505050611c6394925060ff191682840152151560051b820101388080611c54565b600654811015611cfd5760066000527ff652222313e28459528d920b65115c16c04f3efc82aaedc97be59f3f377c0d3f0190600090565b634e487b7160e01b600052603260045260246000fd5b8054821015611cfd5760005260206000200190600090565b602090602060408183019282815285518094520193019160005b828110611d53575050505090565b835185529381019392810192600101611d45565b600052600560205260ff6040600020541615611e58576003602052604060002090604051611d9481611a38565b8254815260018301546001600160a01b039081166020830152611db960028501611c21565b6040830152611dca60038501611c21565b6060830152611ddb60048501611c21565b6080830152600584015460a083015260068401541660c082015260078301549060e081019182526008840154610100820152611e1960098501611c21565b610120820152610180600c60ff600a8701541615159586610140850152600b810154610160850152015491015282611e5057505090565b511015919050565b50600090565b15611e6557565b60405162461bcd60e51b8152602060048201526016602482015275141c9bd91d58dd08191bd95cc81b9bdd08195e1a5cdd60521b6044820152606490fd5b15611eaa57565b60405162461bcd60e51b815260206004820152602360248201527f4f6e6c792073656c6c65722063616e206d6f646966792074686973206c697374604482015262696e6760e81b6064820152608490fd5b15611f0257565b60405162461bcd60e51b8152602060048201526015602482015274141c9bd91d58dd081b985b59481c995c5d5a5c9959605a1b6044820152606490fd5b15611f4657565b60405162461bcd60e51b815260206004820152601c60248201527f5072696365206d7573742062652067726561746572207468616e2030000000006044820152606490fd5b15611f9257565b60405162461bcd60e51b81526020600482015260146024820152734f6666736574206f7574206f6620626f756e647360601b6044820152606490fd5b15611fd557565b60405162461bcd60e51b815260206004820152601c60248201527f4c696d6974206d7573742062652067726561746572207468616e2030000000006044820152606490fd5b91908201809211610c4357565b91908203918211610c4357565b6001600160401b0381116108ed5760051b60200190565b6040519061205882611a38565b8161018060009182815282602082015260606040820152606080820152606060808201528260a08201528260c08201528260e082015282610100820152606061012082015282610140820152826101608201520152565b8051821015611cfd5760209160051b010190565b156120ca57565b60405162461bcd60e51b815260206004820152601f60248201527f5175616e74697479206d7573742062652067726561746572207468616e2030006044820152606490fd5b600260015414612120576002600155565b604051633ee5aeb560e01b8152600490fd5b6000546001600160a01b0316330361214657565b60405163118cdaa760e01b8152336004820152602490fdfea264697066735822122002a48c3b25b9d25871c68e56f51cc0fb87d228ba37b641446bf7ea43e122f4da64736f6c63430008180033",
  "linkReferences": {},
  "deployedLinkReferences": {}
}