{
  "_format": "hh-sol-artifact-1",
  "contractName": "RatingContract",
  "sourceName": "contracts/RatingContract.sol",
  "abi": [
    {
      "inputs": [
        {
          "internalType": "address",
          "name": "escrowContractAddress",
          "type": "address"
        }
      ],
      "stateMutability": "nonpayable",
      "type": "constructor"
    },
    {
      "inputs": [
        {
          "internalType": "address",
          "name": "owner",
          "type": "address"
        }
      ],
      "name": "OwnableInvalidOwner",
      "type": "error"
    },
    {
      "inputs": [
        {
          "internalType": "address",
          "name": "account",
          "type": "address"
        }
      ],
      "name": "OwnableUnauthorizedAccount",
      "type": "error"
    },
    {
      "inputs": [],
      "name": "ReentrancyGuardReentrantCall",
      "type": "error"
    },
    {
      "anonymous": false,
      "inputs": [
        {
          "indexed": true,
          "internalType": "address",
          "name": "seller",
          "type": "address"
        },
        {
          "indexed": false,
          "internalType": "uint256",
          "name": "totalRatings",
          "type": "uint256"
        },
        {
          "indexed": false,
          "internalType": "uint256",
          "name": "totalScore",
          "type": "uint256"
        },
        {
          "indexed": false,
          "internalType": "uint8",
          "name": "averageScore",
          "type": "uint8"
        },
        {
          "indexed": false,
          "internalType": "uint256",
          "name": "timestamp",
          "type": "uint256"
        }
      ],
      "name": "AggregateRatingUpdated",
      "type": "event"
    },
    {
      "anonymous": false,
      "inputs": [
        {
          "indexed": true,
          "internalType": "address",
          "name": "previousOwner",
          "type": "address"
        },
        {
          "indexed": true,
          "internalType": "address",
          "name": "newOwner",
          "type": "address"
        }
      ],
      "name": "OwnershipTransferred",
      "type": "event"
    },
    {
      "anonymous": false,
      "inputs": [
        {
          "indexed": true,
          "internalType": "uint256",
          "name": "ratingId",
          "type": "uint256"
        },
        {
          "indexed": true,
          "internalType": "address",
          "name": "seller",
          "type": "address"
        },
        {
          "indexed": true,
          "internalType": "address",
          "name": "remover",
          "type": "address"
        },
        {
          "indexed": false,
          "internalType": "uint256",
          "name": "timestamp",
          "type": "uint256"
        }
      ],
      "name": "RatingRemoved",
      "type": "event"
    },
    {
      "anonymous": false,
      "inputs": [
        {
          "indexed": true,
          "internalType": "uint256",
          "name": "ratingId",
          "type": "uint256"
        },
        {
          "indexed": true,
          "internalType": "uint256",
          "name": "orderId",
          "type": "uint256"
        },
        {
          "indexed": true,
          "internalType": "address",
          "name": "seller",
          "type": "address"
        },
        {
          "indexed": false,
          "internalType": "address",
          "name": "buyer",
          "type": "address"
        },
        {
          "indexed": false,
          "internalType": "uint8",
          "name": "score",
          "type": "uint8"
        },
        {
          "indexed": false,
          "internalType": "uint256",
          "name": "timestamp",
          "type": "uint256"
        }
      ],
      "name": "RatingSubmitted",
      "type": "event"
    },
    {
      "inputs": [],
      "name": "escrowContract",
      "outputs": [
        {
          "internalType": "contract EscrowContract",
          "name": "",
          "type": "address"
        }
      ],
      "stateMutability": "view",
      "type": "function"
    },
    {
      "inputs": [
        {
          "internalType": "uint256",
          "name": "orderId",
          "type": "uint256"
        }
      ],
      "name": "getOrderRating",
      "outputs": [
        {
          "internalType": "uint256",
          "name": "ratingId",
          "type": "uint256"
        },
        {
          "internalType": "uint8",
          "name": "score",
          "type": "uint8"
        },
        {
          "internalType": "address",
          "name": "buyer",
          "type": "address"
        }
      ],
      "stateMutability": "view",
      "type": "function"
    },
    {
      "inputs": [
        {
          "internalType": "uint256",
          "name": "ratingId",
          "type": "uint256"
        }
      ],
      "name": "getRating",
      "outputs": [
        {
          "components": [
            {
              "internalType": "uint256",
              "name": "ratingId",
              "type": "uint256"
            },
            {
              "internalType": "uint256",
              "name": "orderId",
              "type": "uint256"
            },
            {
              "internalType": "address",
              "name": "buyer",
              "type": "address"
            },
            {
              "internalType": "address",
              "name": "seller",
              "type": "address"
            },
            {
              "internalType": "uint8",
              "name": "score",
              "type": "uint8"
            },
            {
              "internalType": "string",
              "name": "reviewHash",
              "type": "string"
            },
            {
              "internalType": "uint256",
              "name": "timestamp",
              "type": "uint256"
            }
          ],
          "internalType": "struct RatingContract.SellerRating",
          "name": "",
          "type": "tuple"
        }
      ],
      "stateMutability": "view",
      "type": "function"
    },
    {
      "inputs": [
        {
          "internalType": "address",
          "name": "seller",
          "type": "address"
        }
      ],
      "name": "getSellerAggregateRating",
      "outputs": [
        {
          "components": [
            {
              "internalType": "address",
              "name": "seller",
              "type": "address"
            },
            {
              "internalType": "uint256",
              "name": "totalRatings",
              "type": "uint256"
            },
            {
              "internalType": "uint256",
              "name": "totalScore",
              "type": "uint256"
            },
            {
              "internalType": "uint8",
              "name": "averageScore",
              "type": "uint8"
            },
            {
              "internalType": "uint256",
              "name": "lastUpdated",
              "type": "uint256"
            }
          ],
          "internalType": "struct RatingContract.SellerAggregateRating",
          "name": "",
          "type": "tuple"
        }
      ],
      "stateMutability": "view",
      "type": "function"
    },
    {
      "inputs": [
        {
          "internalType": "address",
          "name": "seller",
          "type": "address"
        }
      ],
      "name": "getSellerRatingIds",
      "outputs": [
        {
          "internalType": "uint256[]",
          "name": "",
          "type": "uint256[]"
        }
      ],
      "stateMutability": "view",
      "type": "function"
    },
    {
      "inputs": [
        {
          "internalType": "address",
          "name": "seller",
          "type": "address"
        },
        {
          "internalType": "uint256",
          "name": "offset",
          "type": "uint256"
        },
        {
          "internalType": "uint256",
          "name": "limit",
          "type": "uint256"
        }
      ],
      "name": "getSellerRatings",
      "outputs": [
        {
          "components": [
            {
              "internalType": "uint256",
              "name": "ratingId",
              "type": "uint256"
            },
            {
              "internalType": "uint256",
              "name": "orderId",
              "type": "uint256"
            },
            {
              "internalType": "address",
              "name": "buyer",
              "type": "address"
            },
            {
              "internalType": "address",
              "name": "seller",
              "type": "address"
            },
            {
              "internalType": "uint8",
              "name": "score",
              "type": "uint8"
            },
            {
              "internalType": "string",
              "name": "reviewHash",
              "type": "string"
            },
            {
              "internalType": "uint256",
              "name": "timestamp",
              "type": "uint256"
            }
          ],
          "internalType": "struct RatingContract.SellerRating[]",
          "name": "",
          "type": "tuple[]"
        }
      ],
      "stateMutability": "view",
      "type": "function"
    },
    {
      "inputs": [],
      "name": "getTotalRatedSellers",
      "outputs": [
        {
          "internalType": "uint256",
          "name": "",
          "type": "uint256"
        }
      ],
      "stateMutability": "view",
      "type": "function"
    },
    {
      "inputs": [],
      "name": "getTotalRatings",
      "outputs": [
        {
          "internalType": "uint256",
          "name": "",
          "type": "uint256"
        }
      ],
      "stateMutability": "view",
      "type": "function"
    },
    {
      "inputs": [
        {
          "internalType": "uint256",
          "name": "orderId",
          "type": "uint256"
        },
        {
          "internalType": "address",
          "name": "buyer",
          "type": "address"
        }
      ],
      "name": "hasRatedOrder",
      "outputs": [
        {
          "internalType": "bool",
          "name": "",
          "type": "bool"
        }
      ],
      "stateMutability": "view",
      "type": "function"
    },
    {
      "inputs": [
        {
          "internalType": "uint256",
          "name": "",
          "type": "uint256"
        }
      ],
      "name": "orderRated",
      "outputs": [
        {
          "internalType": "bool",
          "name": "",
          "type": "bool"
        }
      ],
      "stateMutability": "view",
      "type": "function"
    },
    {
      "inputs": [
        {
          "internalType": "uint256",
          "name": "",
          "type": "uint256"
        }
      ],
      "name": "orderToBuyer",
      "outputs": [
        {
          "internalType": "address",
          "name": "",
          "type": "address"
        }
      ],
      "stateMutability": "view",
      "type": "function"
    },
    {
      "inputs": [],
      "name": "owner",
      "outputs": [
        {
          "internalType": "address",
          "name": "",
          "type": "address"
        }
      ],
      "stateMutability": "view",
      "type": "function"
    },
    {
      "inputs": [
        {
          "internalType": "uint256",
          "name": "",
          "type": "uint256"
        }
      ],
      "name": "ratings",
      "outputs": [
        {
          "internalType": "uint256",
          "name": "ratingId",
          "type": "uint256"
        },
        {
          "internalType": "uint256",
          "name": "orderId",
          "type": "uint256"
        },
        {
          "internalType": "address",
          "name": "buyer",
          "type": "address"
        },
        {
          "internalType": "address",
          "name": "seller",
          "type": "address"
        },
        {
          "internalType": "uint8",
          "name": "score",
          "type": "uint8"
        },
        {
          "internalType": "string",
          "name": "reviewHash",
          "type": "string"
        },
        {
          "internalType": "uint256",
          "name": "timestamp",
          "type": "uint256"
        }
      ],
      "stateMutability": "view",
      "type": "function"
    },
    {
      "inputs": [
        {
          "internalType": "uint256",
          "name": "ratingId",
          "type": "uint256"
        }
      ],
      "name": "removeRating",
      "outputs": [],
      "stateMutability": "nonpayable",
      "type": "function"
    },
    {
      "inputs": [],
      "name": "renounceOwnership",
      "outputs": [],
      "stateMutability": "nonpayable",
      "type": "function"
    },
    {
      "inputs": [
        {
          "internalType": "address",
          "name": "",
          "type": "address"
        }
      ],
      "name": "sellerAggregates",
      "outputs": [
        {
          "internalType": "address",
          "name": "seller",
          "type": "address"
        },
        {
          "internalType": "uint256",
          "name": "totalRatings",
          "type": "uint256"
        },
        {
          "internalType": "uint256",
          "name": "totalScore",
          "type": "uint256"
        },
        {
          "internalType": "uint8",
          "name": "averageScore",
          "type": "uint8"
        },
        {
          "internalType": "uint256",
          "name": "lastUpdated",
          "type": "uint256"
        }
      ],
      "stateMutability": "view",
      "type": "function"
    },
    {
      "inputs": [
        {
          "internalType": "address",
          "name": "",
          "type": "address"
        },
        {
          "internalType": "uint256",
          "name": "",
          "type": "uint256"
        }
      ],
      "name": "sellerRatingIds",
      "outputs": [
        {
          "internalType": "uint256",
          "name": "",
          "type": "uint256"
        }
      ],
      "stateMutability": "view",
      "type": "function"
    },
    {
      "inputs": [
        {
          "internalType": "address",
          "name": "escrowContractAddress",
          "type": "address"
        }
      ],
      "name": "setEscrowContract",
      "outputs": [],
      "stateMutability": "nonpayable",
      "type": "function"
    },
    {
      "inputs": [
        {
          "internalType": "uint256",
          "name": "orderId",
          "type": "uint256"
        },
        {
          "internalType": "address",
          "name": "seller",
          "type": "address"
        },
        {
          "internalType": "uint8",
          "name": "score",
          "type": "uint8"
        },
        {
          "internalType": "string",
          "name": "reviewHash",
          "type": "string"
        }
      ],
      "name": "submitRating",
      "outputs": [
        {
          "internalType": "uint256",
          "name": "",
          "type": "uint256"
        }
      ],
      "stateMutability": "nonpayable",
      "type": "function"
    },
    {
      "inputs": [
        {
          "internalType": "address",
          "name": "newOwner",
          "type": "address"
        }
      ],
      "name": "transferOwnership",
      "outputs": [],
      "stateMutability": "nonpayable",
      "type": "function"
    }
  ],
  "bytecode": "0x60803461011b57601f611c5638819003918201601f19168301916001600160401b038311848410176101205780849260209460405283398101031261011b57516001600160a01b038082169182900361011b573315610102576000549060018060a01b0319913383821617600055604051913391167f8be0079c531659141344cd1fd0a4f28419497f9722a3daafe3b4186f6b6457e0600080a36001805582156100c0575060035416176003556001600255604051611b1f90816101378239f35b62461bcd60e51b815260206004820152601f60248201527f496e76616c696420457363726f7720636f6e74726163742061646472657373006044820152606490fd5b604051631e4fbdf760e01b815260006004820152602490fd5b600080fd5b634e487b7160e01b600052604160045260246000fdfe608080604052600436101561001357600080fd5b60003560e01c90816305e4d22714611339575080630ab6a803146113095780631e515b931461124657806336ebec69146111ee57806350c3706a146111bd5780635d30e84d1461112a578063608d6fba14610889578063715018a6146108305780638da5cb5b14610807578063a1965762146107c9578063a4034f5414610715578063b0ee0e9f14610659578063b158a23e14610625578063e223e31414610282578063e42a96e7146105fc578063e5ddde2a14610287578063ec6ab10714610282578063edee289314610216578063f2fde38b1461018d5763f42375b5146100fb57600080fd5b34610188576020366003190112610188576101146115cf565b61011c611abd565b6001600160a01b03168015610143576001600160601b0360a01b6003541617600355600080f35b60405162461bcd60e51b815260206004820152601f60248201527f496e76616c696420457363726f7720636f6e74726163742061646472657373006044820152606490fd5b600080fd5b34610188576020366003190112610188576101a66115cf565b6101ae611abd565b6001600160a01b039081169081156101fd57600054826001600160601b0360a01b821617600055167f8be0079c531659141344cd1fd0a4f28419497f9722a3daafe3b4186f6b6457e0600080a3005b604051631e4fbdf760e01b815260006004820152602490fd5b346101885760203660031901126101885760a06001600160a01b038061023a6115cf565b166000526006602052604060002090815416906001810154906002810154600460ff600384015416920154926040519485526020850152604084015260608301526080820152f35b611826565b346101885760208060031936011261018857600435906102a5611abd565b6102ad611a9a565b8160005260048152604060002091604051906102c88261170b565b835482526001938481015484840190815260ff60018060a01b03806002850154166040870152600393610331858201549760056060820193858b16855286608084019b60a01c168b5261031d60048201611765565b60a0840152015460c0820152511515611a56565b511694511684600052600686526040600020878101918254806105d6575b505081548690156105a05750600281015490825490811561058a5787937fb6cab0267d3f63a2211fd68142d9de1c8c57a33558198d519727b5c388cbcc859360ff60809489850192041660ff198254161790555b846001600160601b0360a01b835416178255426004830155549060ff87600283015492015416906040519283528a8301526040820152426060820152a25160005260078452604060002060ff1981541690558260005260058452846040600020816000905b6104b5575b50505060056000918383526004865282604081209181835581898401558160028401558201556004810161044181546116d1565b908161047b575b505001557fc534c2b30cdfe24afe26a8190d5bf44e73541d425adb79b5dea9468f3c6a2413604051934285523394a48055005b81601f8693116001146104925750555b8780610448565b9080839182526104ae601f8b84209401871c84018c8501611961565b555561048b565b81548082101561058457856104ca83856116a3565b905490871b1c146104de5750820182610408565b91936000199350918381019190821161056e5761050e61050161052793876116a3565b905490851b1c91866116a3565b90919082549060031b91821b91600019901b1916179055565b82549182156105585760009381600594019161054383836116a3565b9091825491861b1b191690555591869161040d565b634e487b7160e01b600052603160045260246000fd5b634e487b7160e01b600052601160045260246000fd5b5061040d565b634e487b7160e01b600052601260045260246000fd5b848201805460ff19169055917fb6cab0267d3f63a2211fd68142d9de1c8c57a33558198d519727b5c388cbcc85916080916103a3565b600019810190811161056e5783556105f36002830191825461185e565b9055888061034f565b34610188576000366003190112610188576003546040516001600160a01b039091168152602090f35b34610188576020366003190112610188576004356000526008602052602060018060a01b0360406000205416604051908152f35b346101885760208060031936011261018857600435610676611883565b50806000526004825261068f6040600020541515611a56565b600052600481526040600020906005604051926106ab8461170b565b8054845260018101548385015260028101546001600160a01b0390811660408601526003820154908116606086015260a01c60ff1660808501526106f160048201611765565b60a0850152015460c0830152610711604051928284938452830190611643565b0390f35b3461018857602080600319360112610188576001600160a01b036107376115cf565b1660005260058152604060002060405190818382549182815201908192600052846000209060005b868282106107b557868661077582880383611743565b604051928392818401908285525180915260408401929160005b82811061079e57505050500390f35b83518552869550938101939281019260010161078f565b83548552909301926001928301920161075f565b3461018857602036600319011261018857606060ff6107e9600435611978565b91929060405193845216602083015260018060a01b03166040820152f35b34610188576000366003190112610188576000546040516001600160a01b039091168152602090f35b3461018857600036600319011261018857610849611abd565b600080546001600160a01b0319811682556001600160a01b03167f8be0079c531659141344cd1fd0a4f28419497f9722a3daafe3b4186f6b6457e08280a3005b34610188576080366003190112610188576108a26115e5565b60443560ff81168103610188576064359067ffffffffffffffff821161018857366023830112156101885781600401356108db8161180a565b926108e96040519485611743565b818452366024838301011161018857816000926024602093018387013784010152610912611a9a565b6003546001600160a01b031680156110e5576001600160a01b038416156110a757600160ff8316101580611099575b1561105457600435600052600760205260ff604060002054166110195760006024916040519283809263d09ef24160e01b825260043560048301525afa90811561100d57600091610e97575b5060208101516001600160a01b03163303610e5257610100810180516009811015610e3c57600614908115610e27575b5015610dd657604001516001600160a01b03848116911603610d915760025491600019831461056e57600183016002556040516109f98161170b565b8381526020810191600435835260408201338152606083019060018060a01b0388168252608084019060ff8716825260a085019384524260c086015287600052600460205260406000209585518755516001870155600286019060018060a01b039051166001600160601b0360a01b825416179055600385019160018060a01b0390511682549160ff60a01b905160a01b16916affffffffffffffffffffff60a81b16171790555180519067ffffffffffffffff8211610cbb57610ac060048501546116d1565b601f8111610d51575b50602090601f8311600114610cdc5791806005949260c094600092610cd1575b50508160011b916000199060031b1c19161760048501555b0151910155600435600052600760205260406000209260ff199360018582541617905560086020526040600020336001600160601b0360a01b82541617905560018060a01b03811660005260056020526040600020805468010000000000000000811015610cbb5761050e81610b7d93600188940181556116a3565b60018060a01b038116600052600660205260406000209360018501948554916001830180931161056e578287556002820192610bbd60ff87168554611851565b845515610ca557825496805490811561058a5760209860ff9384600394858801930416908254161790555b60018060a01b0386166001600160601b0360a01b85541617845542600485015554935492015416906040519283528683015260408201524260608201527fb6cab0267d3f63a2211fd68142d9de1c8c57a33558198d519727b5c388cbcc85608060018060a01b03841692a260ff60405192338452168483015242604083015260018060a01b031690827ff35ff25cc490d58c26443018a56f62a917cfe45130e702065bd745c2dbf51823606060043593a460018055604051908152f35b600360209760ff92828501908154169055610be8565b634e487b7160e01b600052604160045260246000fd5b015190508980610ae9565b906004850160005260206000209160005b601f1985168110610d395750926005949260019260c09583601f19811610610d20575b505050811b016004850155610b01565b015160001960f88460031b161c19169055898080610d10565b91926020600181928685015181550194019201610ced565b610d8190600486016000526020600020601f850160051c81019160208610610d87575b601f0160051c0190611961565b87610ac9565b9091508190610d74565b60405162461bcd60e51b815260206004820152601760248201527f53656c6c65722061646472657373206d69736d617463680000000000000000006044820152606490fd5b60405162461bcd60e51b8152602060048201526024808201527f4f72646572206d75737420626520636f6d706c65746564206f722064656c6976604482015263195c995960e21b6064820152608490fd5b9050516009811015610e3c57600414856109bd565b634e487b7160e01b600052602160045260246000fd5b60405162461bcd60e51b815260206004820152601e60248201527f4f6e6c792062757965722063616e20726174652074686973206f7264657200006044820152606490fd5b3d9150816000823e610ea98282611743565b60208183810103126101885780519067ffffffffffffffff8211610188576101e0928383830182840103126101885760405193848181011067ffffffffffffffff8287011117610cbb57840160405281830180518552610f0b90602001611908565b6020850152610f1e604084840101611908565b60408501528183016060818101519086015260808082015190860152610f469060a001611908565b60a085015260c0838301015160038110156101885760c085015260e0838301015167ffffffffffffffff811161018857610f8790828401908585010161191c565b60e08501526101008084840101519060098210156101885785015281830161012081810151908601526101408082015190860152610160808201519086015261018080820151908601526101a0015167ffffffffffffffff811161018857610ff5918301908484010161191c565b6101a0840152016101c090810151908201528461098d565b6040513d6000823e3d90fd5b60405162461bcd60e51b815260206004820152601360248201527213dc99195c88185b1c9958591e481c985d1959606a1b6044820152606490fd5b60405162461bcd60e51b815260206004820152601d60248201527f53636f7265206d757374206265206265747765656e203120616e6420350000006044820152606490fd5b50600560ff83161115610941565b60405162461bcd60e51b8152602060048201526016602482015275496e76616c69642073656c6c6572206164647265737360501b6044820152606490fd5b60405162461bcd60e51b815260206004820152601760248201527f457363726f7720636f6e7472616374206e6f74207365740000000000000000006044820152606490fd5b34610188576020366003190112610188576004356000526004602052604060002080546001820154916111b360018060a01b039160ff8360028301541693600383015490600561117c60048601611765565b940154956040519889988952602089015260408801528116606087015260a01c16608085015260e060a085015260e084019061161e565b9060c08301520390f35b34610188576020366003190112610188576004356000526007602052602060ff604060002054166040519015158152f35b34610188576040366003190112610188576112076115cf565b6001600160a01b031660009081526005602052604090208054602435919082101561018857602091611238916116a3565b90546040519160031b1c8152f35b346101885760203660031901126101885760a06112616115cf565b6000608060405161127181611727565b8281528260208201528260408201528260608201520152600180831b03809116600052600660205260406000209060ff604051916112ae83611727565b8354169283835260018101546020840190815260028201549060408501918252608060048560038601541694606088019586520154950194855260405195865251602086015251604085015251166060830152516080820152f35b3461018857604036600319011261018857602061132f6113276115e5565b6004356118d0565b6040519015158152f35b34610188576060906060600319360112610188576113556115cf565b90602435916044359360018060a01b038092166000526005916020956005875260406000208581549182825289820190600052896000209260005b8b8282106115b9575050506113a792500386611743565b84518087109081156115b0575b501561157457801561152f57856113ce6113de9282611851565b8651808211611527575b5061185e565b936113e88561186b565b956113f66040519788611743565b8587526114028661186b565b601f19018860005b8281106115115750505060005b86811061147c57604080518a81528951818c01819052600092600582901b83018101918c8e01918e9085015b8287106114505785850386f35b90919293828061146c600193603f198a82030186528851611643565b9601920196019592919092611443565b8061149261148c60019385611851565b856118bc565b5160005260048a52604060002087604051916114ad8361170b565b80548352848101548d84015287600282015416604084015260038101548881168a85015260ff60a091821c1660808501526114ea60048301611765565b90840152015460c08201526114ff828b6118bc565b5261150a818a6118bc565b5001611417565b611519611883565b82828c01015201899061140a565b9050896113d8565b60405162461bcd60e51b815260048101889052601c60248201527f4c696d6974206d7573742062652067726561746572207468616e2030000000006044820152606490fd5b60405162461bcd60e51b81526004810188905260146024820152734f6666736574206f7574206f6620626f756e647360601b6044820152606490fd5b905015886113b4565b855484526001958601958b955093019201611390565b600435906001600160a01b038216820361018857565b602435906001600160a01b038216820361018857565b60005b83811061160e5750506000910152565b81810151838201526020016115fe565b90602091611637815180928185528580860191016115fb565b601f01601f1916010190565b908151815260208201516020820152604082015160018060a01b038091166040830152606083015116606082015260ff608083015116608082015260c08061169a60a085015160e060a086015260e085019061161e565b93015191015290565b80548210156116bb5760005260206000200190600090565b634e487b7160e01b600052603260045260246000fd5b90600182811c92168015611701575b60208310146116eb57565b634e487b7160e01b600052602260045260246000fd5b91607f16916116e0565b60e0810190811067ffffffffffffffff821117610cbb57604052565b60a0810190811067ffffffffffffffff821117610cbb57604052565b90601f8019910116810190811067ffffffffffffffff821117610cbb57604052565b90604051918260008254611778816116d1565b908184526020946001916001811690816000146117e857506001146117a9575b5050506117a792500383611743565b565b600090815285812095935091905b8183106117d05750506117a79350820101388080611798565b855488840185015294850194879450918301916117b7565b925050506117a794925060ff191682840152151560051b820101388080611798565b67ffffffffffffffff8111610cbb57601f01601f191660200190565b3461018857600036600319011261018857600254600019810190811161056e57602090604051908152f35b9190820180921161056e57565b9190820391821161056e57565b67ffffffffffffffff8111610cbb5760051b60200190565b604051906118908261170b565b8160c0600091828152826020820152826040820152826060820152826080820152606060a08201520152565b80518210156116bb5760209160051b010190565b600052600760205260ff60406000205416156119025760086020526040600020546001600160a01b0391821691161490565b50600090565b51906001600160a01b038216820361018857565b81601f820112156101885780516119328161180a565b926119406040519485611743565b818452602082840101116101885761195e91602080850191016115fb565b90565b81811061196c575050565b60008155600101611961565b600090808252602090600760205260ff9060409160ff60408620541615611a4c576008602052604085205460028054946001600160a01b039283169392906119bf8761186b565b6119cc6040519182611743565b878152601f196119db8961186b565b019060203691013760019760015b888110611a00575050505050505050505080918190565b808b5260048252828b20888b8201541480611a3e575b611a22575089016119e9565b9b9950505050505092509350506003845494015460a01c169190565b508785878301541614611a16565b5050505080918190565b15611a5d57565b60405162461bcd60e51b815260206004820152601560248201527414985d1a5b99c8191bd95cc81b9bdd08195e1a5cdd605a1b6044820152606490fd5b600260015414611aab576002600155565b604051633ee5aeb560e01b8152600490fd5b6000546001600160a01b03163303611ad157565b60405163118cdaa760e01b8152336004820152602490fdfea2646970667358221220ed6b67a3721a3e0c5dd591d516ed09f7e09db7d215571e32498640d11a818d0d64736f6c63430008180033",
  "linkReferences": {},
  "deployedLinkReferences": {}
}